:04000000FEEF3FF0E0
:107714001200280EC66EC56A090EC86EC76A12002A
:107724009EAA97EF3BF099EF3BF092EF3BF0AE50FF
:107734001200EFEC3BF0C580C5B0A3EF3BF0A5EF22
:107744003BF09EEF3BF01200EFEC3BF0C584C5B478
:10775400AEEF3BF0B0EF3BF0A9EF3BF01200016E4F
:107764009EA8B7EF3BF0B9EF3BF0B2EF3BF001C09E
:10777400ADFF1200670EAF6EAC8AAC84AC9CAC98C3
:10778400AB8EAB88AB9CB886120000EE2AF0250EB7
:10779400EE6AE806FDE1000EF86E0001CFEF3DF061
:1077A400026EEFEC3BF002C0C9FF9EA6DCEF3BF09B
:1077B400DEEF3BF0D7EF3BF09E961200036E9BEC9E
:1077C4003BF0780ED2EC3BF0000ED2EC3BF00350D1
:1077D400D2EC3BF0A6EC3BF01200C5CF01F01F0E3B
:1077E4000116D8A4F8EF3BF0FAEF3BF0EFEF3BF0D3
:1077F400C7B4FFEF3BF001EF3CF0EFEF3BF01200BA
:10780400160E186E13C019F0000E1C6E000E1B6EBF
:10781400000E236E000E226E190E0D6E14C00EF0B3
:1078240015C00FF0180E106E1EEC3CF013501B2404
:10783400D96EDA6ADF6A12000EC011F00FC012F0BE
:107844002CEF3CF00DC009F0110E0A6E10C00BF0C5
:10785400EFEC3CF011C0F6FF12C0F7FF0800F55042
:107864000009D8A438EF3CF03AEF3CF024EF3CF0A8
:10787400000E0E6E000E0D6E120002C006F003C064
:1078840007F001C009F056EF3CF006C0F6FF07C050
:10789400F7FF0800F5CF08F0064A072A0950D96E09
:1078A400DA6A08C0DFFF092A0406D8A005060428FE
:1078B40006E10528D8A461EF3CF063EF3CF047EF04
:1078C4003CF012009BEC3BF0780ED2EC3BF0400E07
:1078D400D2EC3BF0000E046E000E036E000E066E3A
:1078E400000E056E000ED2EC3BF0054A062A06BED9
:1078F40085EF3CF0065009E1800E055CD8A085EFC9
:107904003CF087EF3CF074EF3CF0034A042A04BED9
:1079140095EF3CF0045009E1080E035CD8A095EF04
:107924003CF097EF3CF070EF3CF0A6EC3BF012001B
:107934000350D8B4A0EF3CF0A2EF3CF0AAEF3CF027
:107944000350D8A4A8EF3CF0AAEF3CF0AFEF3CF012
:1079540001508AEC3BF0EEEF3CF00350D96EDA6A4A
:10796400090ED926DE50DE10D8B4BBEF3CF0BDEFD3
:107974003CF0D6EF3CF00350D96EDA6A090ED926F2
:107984000350E16EE26A020EE126DE50E65CE65048
:10799400800A086EDE50800A0858D8B0D4EF3CF054
:1079A400D6EF3CF0EEEF3CF00350D96EDA6A020EEB
:1079B400D926DF50046E0350D96EDA6ADF500424EE
:1079C400D96EDA6A01C0DFFF0350D96EDA6A020E9B
:1079D400D926DE2A000EDD2212000A50D96EDA6A98
:1079E400DECFF6FFDDCFF7FF0800F550250AD8A457
:1079F400FEEF3CF000EF3DF040EF3DF00A50D96E51
:107A0400DA6ADE2A000EDD22000E4B6E000E4A6E8C
:107A14004AC04EF04C684D680A50D96EDA6ADECF1F
:107A2400F6FFDDCFF7FF0800F550630AD8A41DEF79
:107A34003DF01FEF3DF038EF3DF00A50D96EDA6AA1
:107A4400DE2A000EDD220B50D96EDA6ADF50DF2AFF
:107A5400DF2AD96EDA6ADF500C6E0CC001F0026ABC
:107A640009C003F09AEC3CF051EF3DF00A50D96E96
:107A7400DA6ADE2A000EDD2251EF3DF00A50D96E9B
:107A8400DA6ADECFF6FFDDCFF7FF0800F550016EAE
:107A9400026A09C003F09AEC3CF038EF3DF01200A2
:107AA4009BEC3BF0780ED2EC3BF0000ED2EC3BF0BA
:107AB400AE0EE0EC3BF0D50EE0EC3BF0800EE0ECDB
:107AC4003BF0A80EE0EC3BF03F0EE0EC3BF0D30EB5
:107AD400E0EC3BF0000EE0EC3BF0400EE0EC3BF061
:107AE4008D0EE0EC3BF0140EE0EC3BF0200EE0ECED
:107AF4003BF0000EE0EC3BF0A10EE0EC3BF0C80ED6
:107B0400E0EC3BF0DA0EE0EC3BF0120EE0EC3BF084
:107B1400810EE0EC3BF07F0EE0EC3BF0D90EE0ECA4
:107B24003BF0F10EE0EC3BF0DB0EE0EC3BF0400E02
:107B3400E0EC3BF0A40EE0EC3BF0A60EE0EC3BF0F6
:107B4400AF0EE0EC3BF0A6EC3BF0030E056E8A0EA4
:107B5400046E560EE82EFED7042EFCD7052EFAD757
:107B64009BEC3BF0780ED2EC3BF0000ED2EC3BF0F9
:107B7400210ED2EC3BF0000ED2EC3BF07F0ED2ECA7
:107B84003BF0220ED2EC3BF0000ED2EC3BF0070EA1
:107B9400D2EC3BF0A6EC3BF01200620ED36E956A79
:107BA4009468949C030E256E8A0E246E560EE82E5D
:107BB400FED7242EFCD7252EFAD78BEC3BF0030EF0
:107BC400256E8A0E246E560EE82EFED7242EFCD780
:107BD400252EFAD752EC3DF0030E256E8A0E246E44
:107BE400560EE82EFED7242EFCD7252EFAD764ECA9
:107BF4003CF0030E256E8A0E246E560EE82EFED738
:107C0400242EFCD7252EFAD7EB0E0A6E7F0E0B6EB0
:107C14005BEC3EF0060E256E130E246EAE0EE82EBF
:107C2400FED7242EFCD7252EFAD7BCEC3BF0820ECF
:107C3400246EDE0EE82EFED7242EFCD7320EB1ECD5
:107C44003BF092EC3BF0296E260E136EF70E146E89
:107C54007F0E156E29C016F0176A02EC3CF0260E52
:107C64000A6E0B6A5BEC3EF03C0EB1EC3BF0295023
:107C7400B1EC3BF03E0EB1EC3BF08C92060E256E5F
:107C8400130E246EAE0EE82EFED7242EFCD7252E1E
:107C9400FAD78C82060E256E130E246EAE0EE82ED5
:107CA400FED7242EFCD7252EFAD723EF3EF0FEEF85
:107CB4003FF0000E196E000E186EE6EF3EF01850FD
:107CC4000A240C6E19500B200D6E0CC0F6FF0DC06B
:107CD400F7FFF86A050EF76403D00800F55005D0E5
:107CE400F6CFE1FFF7CFE2FFE7500E6E7F0E0E6096
:107CF4007EEF3EF080EF3EF0B3EF3EF0130E016EE8
:107D040018500A240C6E19500B200D6E0CC0F6FF8F
:107D14000DC0F7FFF86A050EF76403D00800F550AC
:107D240005D0F6CFE1FFF7CFE2FFE7500E6E0E501D
:107D3400050DF3CF0FF0F4CF10F0600E0F24116E89
:107D4400FF0E1020126E0B0E1124026E7E0E1220F6
:107D5400036E000E056E050E046E3FEC3CF0BFEFA3
:107D64003EF0130E016EE60E026E7F0E036E000EE1
:107D7400056E050E046E3FEC3CF09BEC3BF0780E78
:107D8400D2EC3BF0400ED2EC3BF0000E1B6E000E2A
:107D94001A6E1A50130FD96EDA6ADF50D2EC3BF028
:107DA4001A4A1B2A1BBEE0EF3EF01B5009E1050EE8
:107DB4001A5CD8A0E0EF3EF0E2EF3EF0CBEF3EF0ED
:107DC400A6EC3BF0184A192A18500A240C6E1950D4
:107DD4000B200D6E0CC0F6FF0DC0F7FFF86A050E00
:107DE400F76403D00800F55005D0F6CFE1FFF7CFD4
:107DF400E2FFE7500009D8A402EF3FF004EF3FF0A0
:107E040061EF3EF0120000000000000000005F007F
:107E1400000003000300143E143E14242A7F2A1297
:107E240043330866613649552250000503000000BB
:107E34001C2241000041221C0014083E08140808BA
:107E44003E08080050300000080808080800606078
:107E5400000020100804023E5149453E04027F0000
:107E640000426151494622414949361814127F1093
:107E740027454545393E49494932010171090736CB
:107E840049494936264949493E00363600000056DC
:107E94003600000814224100141414141400412262
:107EA400140802015109063E4159555E7E0909092B
:107EB4007E7F494949363E414141227F4141413E0D
:107EC4007F494949417F090909013E4141493A7FB6
:107ED4000808087F00417F4100304040403F7F0850
:107EE4001422417F404040407F020C027F7F020405
:107EF400087F3E4141413E7F090909061E21212197
:107F04005E7F09090976264949493201017F010149
:107F14003F4040403F1F2040201F7F2010207F41D2
:107F2400221C224107087008076151494543007F1C
:107F340041000002040810200000417F00040201F7
:107F440002044040404040000102040020545454C4
:107F5400787F444444383844444444384444447F57
:107F6400385454541804047E0505085454543C7F72
:107F74000804047800447D40002040443D007F1004
:107F840028440000417F40007C047804787C080485
:107F9400047838444444387C141414080814141421
:107FA4007C007C080404485454542004043F444492
:107FB4003C4040207C1C2040201C3C4030403C4441
:107FC400281028440C5050503C4464544C4400083D
:107FD40036414100007F00004141360800020102A1
:107FE4000402FF818181FF48656C6C6F20776F729A
:077FF4006C6400256300002E
:047FFC00C7EF3BF0A0
:020000040030CA
:0E000000FF08191EFF0281FF0FC00FE00F4026
:00000001FF
