:04000000FEEF3FF0E0
:1006000000007F0808087F007F49494941007F407A
:10061000404040007F40404040003E4141413E005C
:100620000000000000007F2010207F003E4141417B
:100630003E007F09090976007F40404040007F412D
:1006400041413E00620ED36E956A9468030E0C6EB3
:100650008A0E0B6E560EE82EFED70B2EFCD70C2EF4
:10066000FAD7CCEC04F0030E0C6E8A0E0B6E560E0D
:10067000E82EFED70B2EFCD70C2EFAD787EC03F012
:10068000030E0C6E8A0E0B6E560EE82EFED70B2E46
:10069000FCD70C2EFAD7DDEC03F0030E0C6E8A0E9D
:1006A0000B6E560EE82EFED70B2EFCD70C2EFAD76B
:1006B000000E046E0B0E036E010E056E2FEC04F09F
:1006C000030E0C6E8A0E0B6E560EE82EFED70B2E06
:1006D000FCD70C2EFAD78C92060E0C6E130E0B6EF6
:1006E000AE0EE82EFED70B2EFCD70C2EFAD78C823E
:1006F000060E0C6E130E0B6EAE0EE82EFED70B2EF2
:10070000FCD70C2EFAD76BEF03F0FEEF3FF0BAECFC
:1007100004F0780EA1EC04F0000EA1EC04F0AE0E93
:1007200092EC04F0D50E92EC04F0800E92EC04F002
:10073000A80E92EC04F03F0E92EC04F0D30E92EC73
:1007400004F0000E92EC04F0400E92EC04F08D0EDA
:1007500092EC04F0140E92EC04F0200E92EC04F0F3
:10076000000E92EC04F0A10E92EC04F0C80E92EC94
:1007700004F0DA0E92EC04F0120E92EC04F0810E0A
:1007800092EC04F07F0E92EC04F0D90E92EC04F09F
:10079000F10E92EC04F0DB0E92EC04F0400E92ECC1
:1007A00004F0A40E92EC04F0A60E92EC04F0AF0E4E
:1007B00092EC04F0AFEC04F01200BAEC04F0780E06
:1007C000A1EC04F0000EA1EC04F0210EA1EC04F069
:1007D000000EA1EC04F07F0EA1EC04F0220EA1ECBF
:1007E00004F0000EA1EC04F0070EA1EC04F0AFEC55
:1007F00004F0000E046E000E036E000E066E000E76
:10080000056EBAEC04F0780EA1EC04F0400EA1ECF9
:1008100004F0000EA1EC04F0AFEC04F0054A062A47
:1008200006BE1CEF04F0065009E1800E055CD8A05E
:100830001CEF04F01EEF04F001EF04F0034A042A59
:1008400004BE2CEF04F0045009E1080E035CD8A0AC
:100850002CEF04F02EEF04F0FDEF03F01200BAECE1
:1008600004F0780EA1EC04F0000EA1EC04F0210ECF
:10087000A1EC04F0000EA1EC04F07F0EA1EC04F05A
:10088000220EA1EC04F0000EA1EC04F0070EA1EC86
:1008900004F0AFEC04F0000E0A6E000E096E66EF75
:1008A00004F0BAEC04F0780EA1EC04F0400EA1ECD8
:1008B00004F005500924066E06C0F6FF0800F55046
:1008C000A1EC04F0AFEC04F0094A0A2A060E030278
:1008D000F3CF06F0F4CF07F00402F35007260650DA
:1008E000095C0A50800A086E0750800A0858D8A090
:1008F0007CEF04F07EEF04F051EF04F01200C5CF5E
:1009000001F01F0E0116D8A488EF04F08AEF04F05E
:100910007FEF04F0C7B48FEF04F091EF04F07FEFA6
:1009200004F01200036EBAEC04F0780EA1EC04F0AF
:10093000000EA1EC04F00350A1EC04F0AFEC04F0C5
:100940001200026E7FEC04F002C0C9FF9EA6ABEF5E
:1009500004F0ADEF04F0A6EF04F09E9612007FECD9
:1009600004F0C584C5B4B7EF04F0B9EF04F0B2EFFA
:1009700004F012007FEC04F0C580C5B0C2EF04F0B3
:10098000C4EF04F0BDEF04F01200000EF86E060E86
:10099000F76E000122EF03F0280EC66EC56A090E3D
:0609A000C86EC76A1200D8
:047FFC00C5EF04F0D9
:020000040030CA
:0E000000FF08191EFF0281FF0FC00FE00F4026
:00000001FF
