:0400000007EF00F016
:100008004582E5ED04F093EF04F0620ED36E0F0E17
:10001800C16E070EB46E956A9468949C9586959403
:1000280093689380100ECD6E030E2D6E8A0E2C6E83
:10003800560EE82EFED72C2EFCD72D2EFAD712EC12
:1000480005F0030E2D6E8A0E2C6E560EE82EFED786
:100058002C2EFCD72D2EFAD778EC02F0030E2D6E3D
:100068008A0E2C6E560EE82EFED72C2EFCD72D2E7F
:10007800FAD784EC03F0030E2D6E8A0E2C6E560E02
:10008800E82EFED72C2EFCD72D2EFAD7EB0E0A6EB3
:100098007F0E0B6ECEEC01F0060E2D6E130E2C6E3D
:1000A800AE0EE82EFED72C2EFCD72D2EFAD7B9ECA3
:1000B80004F0820E2C6EDE0EE82EFED72C2EFCD716
:1000C800B30E026E7F0E036EECEC03F0396A386AE9
:1000D800376A38503918D8B474EF00F076EF00F06A
:1000E80090EF00F0310E3918D8A47DEF00F07FEFC3
:1000F80000F082EF00F08C828CEF00F0300E39189F
:10010800D8A489EF00F08BEF00F08CEF00F08C9210
:1001180039C038F0010E376E3704D8A496EF00F0D6
:1001280098EF00F09CEF00F038507DEC04F0376A4F
:100138004350D8B4A2EF00F0A4EF00F0AAEF00F00B
:1001480044C039F03950F1EC04F0436A83A6AFEFAC
:1001580000F0B1EF00F0B4EF00F08C92B5EF00F0D2
:100168008C828C9400D08C84030EE82EFED700007D
:100178008C94C5EF00F0C70E026E7F0E036EECEC98
:1001880003F083A6CAEF00F0CCEF00F0BFEF00F059
:10019800CF6ACE6A9E90CD80D8EF00F0DA0E026E5C
:1001A8007F0E036EECEC03F083B6DDEF00F0DFEFBB
:1001B80000F0D2EF00F0CD90CE50CFCF2CF02D6ACA
:1001C8002CC02DF02C6A2C10356E2D50366E2E0E4C
:1001D8001B6EF80E1C6E7F0E1D6E35C01EF036C0ED
:1001E8001FF061EC04F02E0E026E036AECEC03F0D3
:1001F800060E2D6E130E2C6EAE0EE82EFED72C2E8C
:10020800FCD72D2EFAD76DEF00F007EF00F00A505B
:10021800D96EDA6ADECFF6FFDDCFF7FF0800F550BA
:10022800250AD8A41AEF01F01CEF01F0BCEF01F089
:100238000A50D96EDA6ADE2A000EDD22000E3F6E01
:10024800000E3E6E3EC042F0406841680A50D96ECA
:10025800DA6ADECF0EF0DDCF0FF00EC0F6FF0FC06A
:10026800F7FF0800F550750AD8A43DEF01F03FEFFD
:1002780001F0B4EF01F00B50D96EDA6A020EDF26F6
:10028800DF5CD96EDA6ADECF10F0DECF11F0010E36
:100298000E240C6E000E0F200D6E0A50D96EDA6A0D
:1002A8000CC0DEFF0DC0DDFFA8EF01F0200E146EBC
:1002B80014061450600FD96EDA6A10C001F011C02C
:1002C80002F0000E046E0A0E036EBAEC03F0015041
:1002D800300FDF6E10C001F011C002F0000E046E86
:1002E8000A0E036E4AEC03F001C010F002C011F0D0
:1002F80010501110D8B483EF01F085EF01F09DEF95
:1003080001F01450D8A48BEF01F08DEF01F05CEFF1
:1003180001F09DEF01F01450600FD96EDA6ADF50DA
:100328000C6E0C50016E026A09C003F0F5EC02F085
:10033800142A200E1418D8A4A4EF01F0A6EF01F097
:100348008FEF01F0CDEF01F00EC0F6FF0FC0F7FF01
:100358000800F550750AD8B45AEF01F0B4EF01F06F
:100368000A50D96EDA6ADE2A000EDD22CDEF01F0DE
:100378000A50D96EDA6ADECFF6FFDDCFF7FF080044
:10038800F550016E026A09C003F0F5EC02F0B4EF13
:1003980001F01200000E196E000E186E59EF02F0EF
:1003A80018500A240C6E19500B200D6E0CC0F6FF65
:1003B8000DC0F7FFF86A050EF76403D00800F55082
:1003C80005D0F6CFE1FFF7CFE2FFE7500E6E7F0EC4
:1003D8000E60F1EF01F0F3EF01F026EF02F0130EDB
:1003E800016E18500A240C6E19500B200D6E0CC0AB
:1003F800F6FF0DC0F7FFF86A050EF76403D0080092
:10040800F55005D0F6CFE1FFF7CFE2FFE7500E6ECB
:100418000E50050DF3CF0FF0F4CF10F0600E0F243F
:10042800116EFF0E1020126ED30E1124026E7D0E77
:100438001220036E000E056E050E046E1BEC04F010
:1004480032EF02F0130E016EAE0E026E7F0E036ED7
:10045800000E056E050E046E1BEC04F007EC05F0AB
:10046800780ED7EC04F0400ED7EC04F0000E1B6EAB
:10047800000E1A6E1A50130FD96EDA6ADF50D7ECD5
:1004880004F01A4A1B2A1BBE53EF02F01B5009E165
:10049800050E1A5CD8A053EF02F055EF02F03EEFBC
:1004A80002F0FCEC04F0184A192A18500A240C6EC1
:1004B80019500B200D6E0CC0F6FF0DC0F7FFF86A3F
:1004C800050EF76403D00800F55005D0F6CFE1FF1C
:1004D800F7CFE2FFE7500009D8A475EF02F077EFF5
:1004E80002F0D4EF01F0120007EC05F0780ED7EC1B
:1004F80004F0000ED7EC04F0AE0EC8EC04F0D50EF4
:10050800C8EC04F0800EC8EC04F0A80EC8EC04F0A7
:100518003F0EC8EC04F0D30EC8EC04F0000EC8EC93
:1005280004F0400EC8EC04F08D0EC8EC04F0140E74
:10053800C8EC04F0200EC8EC04F0000EC8EC04F07F
:10054800A10EC8EC04F0C80EC8EC04F0DA0EC8EC32
:1005580004F0120EC8EC04F0810EC8EC04F07F0E13
:10056800C8EC04F0D90EC8EC04F0F10EC8EC04F0A5
:10057800DB0EC8EC04F0400EC8EC04F0A40EC8EC86
:1005880004F0A60EC8EC04F0AF0EC8EC04F0FCECC6
:1005980004F0030E056E8A0E046E560EE82EFED782
:1005A800042EFCD7052EFAD707EC05F0780ED7EC09
:1005B80004F0000ED7EC04F0210ED7EC04F0000E86
:1005C800D7EC04F07F0ED7EC04F0220ED7EC04F041
:1005D800000ED7EC04F0070ED7EC04F0FCEC04F0A6
:1005E80012000350D8B4FBEF02F0FDEF02F005EF64
:1005F80003F00350D8A403EF03F005EF03F00AEF6C
:1006080003F001501EEC05F049EF03F00350D96EDA
:10061800DA6A090ED926DE50DE10D8B416EF03F0D8
:1006280018EF03F031EF03F00350D96EDA6A090EC0
:10063800D9260350E16EE26A020EE126DE50E65C3E
:10064800E650800A086EDE50800A0858D8B02FEFAE
:1006580003F031EF03F049EF03F00350D96EDA6A83
:10066800020ED926DF50046E0350D96EDA6ADF50C5
:100678000424D96EDA6A01C0DFFF0350D96EDA6A42
:10068800020ED926DE2A000EDD221200000E066EAA
:10069800000E056E03500410D8B455EF03F057EF61
:1006A80003F07FEF03F0010E076E5FEF03F0D890C1
:1006B80003360436072A04AE64EF03F066EF03F04E
:1006C8005BEF03F0D890053606360350015C045002
:1006D8000258D8A072EF03F074EF03F079EF03F03B
:1006E8000350015E0450025A0580D8900432033248
:1006F800072E66EF03F005C001F006C002F01200F5
:1007080007EC05F0780ED7EC04F0400ED7EC04F0B7
:10071800000E046E000E036E000E066E000E056ECF
:10072800000ED7EC04F0054A062A06BEA5EF03F032
:10073800065009E1800E055CD8A0A5EF03F0A7EFED
:1007480003F094EF03F0034A042A04BEB5EF03F064
:10075800045009E1080E035CD8A0B5EF03F0B7EF29
:1007680003F090EF03F0FCEC04F0120003500410C7
:10077800D8B4C1EF03F0C3EF03F0E7EF03F0010EC5
:10078800056ECBEF03F0D89003360436052A04AE85
:10079800D0EF03F0D2EF03F0C7EF03F00350015C92
:1007A80004500258D8A0DBEF03F0DDEF03F0E1EFCF
:1007B80003F00350015E0450025AD8900432033209
:1007C800052ED2EF03F001C001F002C002F01200C2
:1007D80002EF04F002C0F6FF03C0F7FFF86A050E47
:1007E800F76403D00800F55005D0F6CFE1FFF7CF46
:1007F800E2FFE750F1EC04F0024A032A02C0F6FFD8
:1008080003C0F7FFF86A050EF76403D00800F55037
:1008180005D0F6CFE1FFF7CFE2FFE7500009D8A4F3
:1008280018EF04F01AEF04F0EEEF03F0120002C024
:1008380006F003C007F001C009F032EF04F006C06B
:10084800F6FF07C0F7FF0800F5CF08F0064A072AA9
:100858000950D96EDA6A08C0DFFF092A0406D8A051
:100868000506042806E10528D8A43DEF04F03FEF6B
:1008780004F023EF04F0120016C019F017C01AF0A4
:100888004EEF04F015C009F0190E0A6E18C00BF0EF
:100898000BEC01F019C0F6FF1AC0F7FF0800F5507D
:1008A8000009D8A45AEF04F05CEF04F046EF04F016
:1008B800000E166E000E156E12001E0E206E1BC066
:1008C80021F0000E246E000E236E000E2B6E000E1B
:1008D8002A6E210E156E1CC016F01DC017F0200ED2
:1008E800186E40EC04F01B502324D96EDA6ADF6AD4
:1008F80012001C6E000E1D6E000E1E6E000E1F6E86
:10090800000E206E1CC01DF02C0E1E6E200E1F6ED9
:10091800206A1D0E0A6E0B6ACEEC01F0120000EE82
:1009280060F0200EEE6AE806FDE100EE3AF00B0EEC
:10093800EE6AE806FDE145904592000EF86E00016A
:1009480009EF00F0C5CF01F01F0E0116D8A4AFEFD4
:1009580004F0B1EF04F0A6EF04F0C7B4B6EF04F06A
:10096800B8EF04F0A6EF04F01200670EAF6EB06A9D
:10097800AC84B886AC98AB8E9D8AF28CF28EAB9C18
:10098800AB88AC9CAC8A1200036E07EC05F0780EBD
:10099800D7EC04F0000ED7EC04F00350D7EC04F0C9
:1009A800FCEC04F01200026EA6EC04F002C0C9FFD1
:1009B8009EA6E1EF04F0E3EF04F0DCEF04F09E966E
:1009C800120006009EAAEBEF04F0EDEF04F0EFEF43
:1009D80004F019EC05F045921100016E9EA8F7EF9E
:1009E80004F0F9EF04F0F2EF04F001C0ADFF1200DB
:1009F800A6EC04F0C584C5B404EF05F006EF05F0D5
:100A0800FFEF04F01200A6EC04F0C580C5B00FEFAC
:100A180005F011EF05F00AEF05F01200280EC66E7A
:100A2800C56A090EC86EC76A1200AECF44F0010E3F
:060A3800436E12001200E3
:107DD20000000000000000005F000000030003003C
:107DE200143E143E14242A7F2A1243330866613655
:107DF200495522500005030000001C2241000041A9
:107E0200221C0014083E081408083E0808005030DE
:107E1200000008080808080060600000201008043C
:107E2200023E5149453E04027F00004261514946EB
:107E320022414949361814127F1027454545393EDB
:107E420049494932010171090736494949362649EA
:107E520049493E003636000000563600000814221A
:107E6200410014141414140041221408020151098F
:107E7200063E4159555E7E0909097E7F49494936C8
:107E82003E414141227F4141413E7F494949417F33
:107E9200090909013E4141493A7F0808087F00412A
:107EA2007F4100304040403F7F081422417F4040E4
:107EB20040407F020C027F7F0204087F3E41414125
:107EC2003E7F090909061E2121215E7F09090976E3
:107ED200264949493201017F01013F4040403F1F8D
:107EE2002040201F7F2010207F41221C22410708B2
:107EF2007008076151494543007F410000020408B0
:107F020010200000417F0004020102044040404072
:107F120040000102040020545454787F4444443801
:107F22003844444444384444447F38545454180434
:107F3200047E0505085454543C7F08040478004428
:107F42007D40002040443D007F1028440000417FD6
:107F520040007C047804787C080404783844444463
:107F6200387C14141408081414147C007C080404CB
:107F7200485454542004043F44443C4040207C1C58
:107F82002040201C3C4030403C44281028440C50E7
:107F920050503C4464544C44000836414100007F38
:107FA200000041413608000201020402FF81818182
:107FB200FF436F6E6E656374656420746F2048437F
:107FC2002D30360A004563686F206E6F7420796524
:107FD2007420686967680A004563686F2073747566
:107FE200636B20686967680A0055534152542074D4
:0E7FF2006573743A2000257520636D0A000047
:020000040030CA
:0E000000FF08191EFF0281FF0FC00FE00F4026
:00000001FF
