:0400000007EF00F016
:100008002C82A3ED02F096EF02F0000E196E000E9E
:10001800186E94EF00F018500A240C6E19500B203B
:100028000D6E0CC0F6FF0DC0F7FFF86A050EF764F9
:1000380003D00800F55005D0F6CFD9FFF7CFDAFF87
:10004800DF500E6E7F0E0E602CEF00F02EEF00F0EA
:1000580061EF00F0130E016E18500A240C6E19504F
:100068000B200D6E0CC0F6FF0DC0F7FFF86A050EE9
:10007800F76403D00800F55005D0F6CFD9FFF7CFC5
:10008800DAFFDF500E6E0E50050DF3CF0FF0F4CFF0
:1000980010F0600E0F24116EFF0E1020126EFF0E6E
:1000A8001124026E7D0E1220036E000E056E050EE1
:1000B800046E01EC02F06DEF00F0130E016EDA0E23
:1000C800026E7F0E036E000E056E050E046E01ECC7
:1000D80002F0C5EC02F0780E88EC02F0400E88ECD5
:1000E80002F0000E1B6E000E1A6E1A50130FD96E16
:1000F800DA6ADF5088EC02F01A4A1B2A1BBE8EEF20
:1001080000F01B5009E1050E1A5CD8A08EEF00F034
:1001180090EF00F079EF00F0BAEC02F0184A192AD3
:1001280018500A240C6E19500B200D6E0CC0F6FFE7
:100138000DC0F7FFF86A050EF76403D00800F55004
:1001480005D0F6CFD9FFF7CFDAFFDF500009D8A4E2
:10015800B0EF00F0B2EF00F00FEF00F01200620E07
:10016800D36E956A9468949C030E226E8A0E216E53
:10017800560EE82EFED7212EFCD7222EFAD7D0EC29
:1001880002F0030E226E8A0E216E560EE82EFED75E
:10019800212EFCD7222EFAD74EEC01F0030E226E48
:1001A8008A0E216E560EE82EFED7212EFCD7222E5F
:1001B800FAD7CBEC01F0030E226E8A0E216E560E92
:1001C800E82EFED7212EFCD7222EFAD7F20E0A6E81
:1001D8007F0E0B6E09EC00F0060E226E130E216ED8
:1001E800AE0EE82EFED7212EFCD7222EFAD76AECC7
:1001F80002F0820E216EDE0EE82EFED7212EFCD7ED
:10020800DF0E026E7F0E036E26EC02F0256A246A6A
:10021800236A24502518D8B414EF01F016EF01F022
:1002280030EF01F0310E2518D8A41DEF01F01FEFB3
:1002380001F022EF01F08C822CEF01F0300E25182E
:10024800D8A429EF01F02BEF01F02CEF01F08C92EC
:1002580025C024F0010E236E2304D8A436EF01F044
:1002680038EF01F03CEF01F0245041EC02F0236A32
:100278002A50D8B442EF01F044EF01F00DEF01F03D
:100288002BC025F02550AFEC02F02A6A0DEF01F0E3
:1002980007EF00F0C5EC02F0780E88EC02F0000ED3
:1002A80088EC02F0AE0E79EC02F0D50E79EC02F093
:1002B800800E79EC02F0A80E79EC02F03F0E79EC92
:1002C80002F0D30E79EC02F0000E79EC02F0400E49
:1002D80079EC02F08D0E79EC02F0140E79EC02F054
:1002E800200E79EC02F0000E79EC02F0A10E79EC08
:1002F80002F0C80E79EC02F0DA0E79EC02F0120E78
:1003080079EC02F0810E79EC02F07F0E79EC02F0C4
:10031800D90E79EC02F0F10E79EC02F0DB0E79ECF3
:1003280002F0400E79EC02F0A40E79EC02F0A60E71
:1003380079EC02F0AF0E79EC02F0BAEC02F0030EA1
:10034800056E8A0E046E560EE82EFED7042EFCD7D4
:10035800052EFAD7C5EC02F0780E88EC02F0000EF4
:1003680088EC02F0210E88EC02F0000E88EC02F016
:100378007F0E88EC02F0220E88EC02F0000E88EC6A
:1003880002F0070E88EC02F0BAEC02F01200C5EC9D
:1003980002F0780E88EC02F0400E88EC02F0000EB5
:1003A800046E000E036E000E066E000E056E000E43
:1003B80088EC02F0054A062A06BEECEF01F006506A
:1003C80009E1800E055CD8A0ECEF01F0EEEF01F03A
:1003D800DBEF01F0034A042A04BEFCEF01F00450ED
:1003E80009E1080E035CD8A0FCEF01F0FEEF01F074
:1003F800D7EF01F0BAEC02F0120002C006F003C019
:1004080007F001C009F018EF02F006C0F6FF07C0B8
:10041800F7FF0800F5CF08F0064A072A0950D96EF9
:10042800DA6A08C0DFFF092A0406D8A005060428EE
:1004380006E10528D8A423EF02F025EF02F009EF22
:1004480002F0120032EF02F002C0F6FF03C0F7FF1D
:100458000800F550AFEC02F0024A032A02C0F6FF8A
:1004680003C0F7FF0800F5500009D8A43EEF02F0DA
:1004780040EF02F028EF02F012001C6E000E1D6E15
:10048800000E1E6E000E1F6E000E206E1CC01DF0AA
:100498002C0E1E6E200E1F6E206A1D0E0A6E0B6A31
:1004A80009EC00F01200C5CF01F01F0E0116D8A408
:1004B80060EF02F062EF02F057EF02F0C7B467EFA7
:1004C80002F069EF02F057EF02F01200670EAF6E0C
:1004D800B06AAC84B886AC98AB8E9D8AF28CF28EEA
:1004E800AB9CAB88AC9CAC8A1200036EC5EC02F0E6
:1004F800780E88EC02F0000E88EC02F0035088ECCD
:1005080002F0BAEC02F01200026E57EC02F002C0E0
:10051800C9FF9EA692EF02F094EF02F08DEF02F071
:100528009E9612002B6A2A6A296A286A276A266A0E
:100538002C902C92000EF86E0001B3EF00F006002C
:100548009EAAA9EF02F0ABEF02F0ADEF02F0D7ECF4
:1005580002F02C921100016E9EA8B5EF02F0B7EFE1
:1005680002F0B0EF02F001C0ADFF120057EC02F04C
:10057800C584C5B4C2EF02F0C4EF02F0BDEF02F0CB
:10058800120057EC02F0C580C5B0CDEF02F0CFEFF6
:1005980002F0C8EF02F01200280EC66EC56A090EF6
:1005A800C86EC76A1200AECF2BF0010E2A6E120079
:107DFE0000000000000000005F0000000300030010
:107E0E00143E143E14242A7F2A1243330866613628
:107E1E00495522500005030000001C22410000417C
:107E2E00221C0014083E081408083E0808005030B2
:107E3E000000080808080800606000002010080410
:107E4E00023E5149453E04027F00004261514946BF
:107E5E0022414949361814127F1027454545393EAF
:107E6E0049494932010171090736494949362649BE
:107E7E0049493E00363600000056360000081422EE
:107E8E004100141414141400412214080201510963
:107E9E00063E4159555E7E0909097E7F494949369C
:107EAE003E414141227F4141413E7F494949417F07
:107EBE00090909013E4141493A7F0808087F0041FE
:107ECE007F4100304040403F7F081422417F4040B8
:107EDE0040407F020C027F7F0204087F3E414141F9
:107EEE003E7F090909061E2121215E7F09090976B7
:107EFE00264949493201017F01013F4040403F1F61
:107F0E002040201F7F2010207F41221C2241070885
:107F1E007008076151494543007F41000002040883
:107F2E0010200000417F0004020102044040404046
:107F3E0040000102040020545454787F44444438D5
:107F4E003844444444384444447F38545454180408
:107F5E00047E0505085454543C7F080404780044FC
:107F6E007D40002040443D007F1028440000417FAA
:107F7E0040007C047804787C080404783844444437
:107F8E00387C14141408081414147C007C0804049F
:107F9E00485454542004043F44443C4040207C1C2C
:107FAE002040201C3C4030403C44281028440C50BB
:107FBE0050503C4464544C44000836414100007F0C
:107FCE00000041413608000201020402FF81818156
:107FDE00FF436F6E6E656374656420746F20484353
:107FEE002D303600555341525420746573743A2027
:027FFE00000081
:020000040030CA
:0E000000FF08191EFF0281FF0FC00FE00F4026
:00000001FF
