:0400000007EF00F016
:100008004C82E6ED09F0BCEF0AF01250800B1B6E33
:1000180012501224216E11AE14EF00F016EF00F00A
:1000280017EF00F021802150D8B41DEF00F01FEF2A
:1000380000F032EF00F02128D8A425EF00F027EFD8
:1000480000F02FEF00F0000E0F6E000E106E000E85
:10005800116E000E126E118E3AEF00F0000E0F6E48
:10006800000E106E000E116E000E126E1650800BF0
:100078001B1A16501624206E15AE45EF00F047EFF8
:1000880000F048EF00F020802050D8B44EEF00F088
:1000980050EF00F063EF00F02028D8A456EF00F0EE
:1000A80058EF00F060EF00F0000E136E000E146EB3
:1000B800000E156E000E166E158E6BEF00F0000E1A
:1000C800136E000E146E000E156E000E166E205084
:1000D800D8B471EF00F073EF00F07BEF00F021501F
:1000E800D8A479EF00F07BEF00F085EF00F0000E68
:1000F8000F6E000E106E000E116E000E126E1BEFCA
:1001080002F015500F02F3CF26F0F4CF27F0265057
:100118001C6E1D6A1E6A1F6A2750226E236A246A93
:10012800256A14501002F3CF26F0F4CF27F026509A
:100138001C26000E1D221E221F2227502226000EDA
:1001480023222422252213501102F3CF26F0F4CFC4
:1001580027F026501C26000E1D221E221F22275083
:100168002226000E2322242225221EC01FF01DC095
:100178001EF01CC01DF01C6A13501002F3CF26F0AD
:10018800F4CF27F026501C2627501D22000E1E22D1
:10019800000E1F2214500F02F3CF26F0F4CF27F0E1
:1001A80026501C2627501D22000E1E22000E1F223C
:1001B8001EC01FF01DC01EF01CC01DF01C6A13508D
:1001C8000F02F3CF26F0F4CF27F026501C26275035
:1001D8001D22000E1E22000E1F2215501002F3CF02
:1001E80026F0F4CF27F02650222627502322000E8F
:1001F8002422000E252214501102F3CF26F0F4CF4A
:1002080027F02650222627502322000E2422000EF3
:10021800252215501102F3CF26F0F4CF27F02650EF
:10022800176E2750186E196A1A6A19C01AF018C082
:1002380019F017C018F0176A1750222618502322F1
:10024800195024221A5025221CC017F01DC018F07E
:100258001EC019F01FC01AF0190E38EF01F0D8901F
:100268001A32193218321732E82E33EF01F01750CC
:10027800222618502322195024221A5025221EC043
:100288001FF01DC01EF01CC01DF01C6A205021C0AC
:1002980017F0186A1726000E1822820E1724266EE9
:1002A800FF0E1820276E6EEF01F0D8902236233605
:1002B800243625361FAE63EF01F065EF01F066EFD7
:1002C80001F02280D8901C361D361E361F362606B1
:1002D800D8A0270624AE73EF01F075EF01F059EFAF
:1002E80001F0206A1FAE7BEF01F07DEF01F0A1EF76
:1002F80001F0FF0E1C14176EFF0E1D14186EFF0E72
:100308001E14196E7F0E1F141A6E1750181019102C
:100318001A10D8B492EF01F094EF01F098EF01F0C1
:10032800010E206EA1EF01F022A09DEF01F09FEFDA
:1003380001F0A1EF01F094EF01F02050D8B4A7EF3D
:1003480001F0A9EF01F0CDEF01F0010E2226000E19
:1003580023222422252225A0B4EF01F0B6EF01F0D4
:10036800CDEF01F022C017F023C018F024C019F017
:1003780025C01AF01A341A3219321832173217C037
:1003880022F018C023F019C024F01AC025F0264A1C
:10039800272A27BED8EF01F0275008E12628D8A041
:1003A800D8EF01F0DAEF01F0E4EF01F0000E226E71
:1003B800000E236E800E246E7F0E256E11EF02F064
:1003C80027BEF1EF01F0275006E12604D8B0EFEF81
:1003D80001F0F1EF01F0FCEF01F0000E226E000ECB
:1003E800236E000E246E000E256E1B6A11EF02F0BC
:1003F80026C021F0FF0E2216FF0E23167F0E2416AC
:10040800000E251621A00BEF02F00DEF02F00EEF03
:1004180002F0248ED8902130256E1B50251222C060
:100428000FF023C010F024C011F025C012F0120004
:10043800096E0950D8B423EF02F025EF02F047EF18
:1004480002F004BE2CEF02F02AEF02F047EF02F0B0
:1004580001C005F002C006F003C007F004C008F0B0
:10046800051E061E071E081E052A000E0622072264
:10047800082205C00BF006C00CF007C00DF008C03C
:100488000EF04FEF02F001C00BF002C00CF003C0F9
:100498000DF004C00EF00150021003100410D8A48F
:1004A80058EF02F05AEF02F064EF02F0000E016E0E
:1004B800000E026E000E036E000E046EF5EF02F0E1
:1004C800960E0A6E6EEF02F00A2AD8900E320D329E
:1004D8000C320B32000E0B14056E000E0C14066E57
:1004E800000E0D14076EFE0E0E14086E0550061051
:1004F80007100810D8A483EF02F085EF02F068EF28
:1005080002F093EF02F00A2A010E0B26000E0C22CD
:100518000D220E22D8900E320D320C320B32000E04
:100528000B14056E000E0C14066E000E0D14076EEB
:10053800FF0E0E14086E0550061007100810D8A4F8
:10054800A8EF02F0AAEF02F087EF02F0B2EF02F094
:100558000A06D8900B360C360D360E360DBEB7EFA0
:1005680002F0B9EF02F0C1EF02F0020E0A60BFEF2D
:1005780002F0C1EF02F0ACEF02F00AB0C6EF02F0F1
:10058800C8EF02F0C9EF02F00D9ED8900A320AC0F7
:1005980005F0066A076A086A05C008F0076A066A6D
:1005A800056A05500B1206500C1207500D12085020
:1005B8000E120950D8B4E3EF02F0E5EF02F0EDEFC8
:1005C80002F004BEECEF02F0EAEF02F0EDEF02F009
:1005D8000E8E0BC001F00CC002F00DC003F00EC06F
:1005E80004F012001A501B10D8A4FDEF02F0FFEF20
:1005F80002F001EF03F0C7EF03F0CA948C92400EAB
:100608000D6E420E0E6E0F0E0F6E000E106E1AC09B
:1006180011F01BC012F0136A146ABDEC08F00DC08B
:1006280022F00EC023F00FC024F010C025F022C025
:100638001EF023C01FF024C020F025C021F0D89060
:10064800213220321F321E321EC029F01FC02AF06C
:100658002904010E2A58D8B034EF03F036EF03F01E
:100668003FEF03F0286AFF0E2924266EFF0E2A208A
:10067800276E91EF03F029C01EF02AC01FF0D89012
:100688001F321E32D8901F321E321E04010E1F5810
:10069800D8B051EF03F053EF03F067EF03F0010E0A
:1006A800286E29C01EF02AC01FF0D8901F321E32B3
:1006B800D8901F321E32FF0E1E24266EFF0E1F20FA
:1006C800276E91EF03F029C01EF02AC01FF0040E18
:1006D800206ED8901F321E32202E6DEF03F01E04BC
:1006E800010E1F58D8B07BEF03F07DEF03F0C7EF82
:1006F80003F0020E286E29C01EF02AC01FF0040E57
:10070800206ED8901F321E32202E85EF03F0FF0E88
:100718001E24266EFF0E1F20276ECA502818FC0BB9
:100728002818CA6E26C0CBFFCC6A9E921CC001F066
:100738001DC002F0036A046AE80E056E030E066E19
:10074800000E076E000E086E7FEC09F001C00DF078
:1007580002C00EF003C00FF004C010F029C011F061
:100768002AC012F0136A146ABDEC08F00DC041F0FB
:100778000EC042F00FC043F010C044F0030EE82E44
:10078800FED70000CA8412000A50D96EDA6ADECF9A
:10079800F6FFDDCFF7FF0800F550250AD8A4D7EFFC
:1007A80003F0D9EF03F079EF04F00A50D96EDA6A52
:1007B800DE2A000EDD22000E466E000E456E45C094
:1007C80049F0476848680A50D96EDA6ADECF0EF0F9
:1007D800DDCF0FF00EC0F6FF0FC0F7FF0800F55091
:1007E800750AD8A4FAEF03F0FCEF03F071EF04F0F8
:1007F8000B50D96EDA6A020EDF26DF5CD96EDA6A30
:10080800DECF10F0DECF11F0010E0E240C6E000EBC
:100818000F200D6E0A50D96EDA6A0CC0DEFF0DC0CB
:10082800DDFF65EF04F0200E146E14061450600FFF
:10083800D96EDA6A10C001F011C002F0000E046E21
:100848000A0E036EB4EC09F00150300FDF6E10C0D1
:1008580001F011C002F0000E046E0A0E036E0FECD8
:1008680009F001C010F002C011F010501110D8B4F6
:1008780040EF04F042EF04F05AEF04F01450D8A40B
:1008880048EF04F04AEF04F019EF04F05AEF04F0CF
:100898001450600FD96EDA6ADF500C6E0C50016E7E
:1008A800026A09C003F015EC08F0142A200E141887
:1008B800D8A461EF04F063EF04F04CEF04F08AEF82
:1008C80004F00EC0F6FF0FC0F7FF0800F550750AD8
:1008D800D8B417EF04F071EF04F00A50D96EDA6A51
:1008E800DE2A000EDD228AEF04F00A50D96EDA6A99
:1008F800DECFF6FFDDCFF7FF0800F550016E026A84
:1009080009C003F015EC08F071EF04F01200620E54
:10091800D36E0F0EC16E070EB46E956A9468949CE0
:10092800958695949592100ECD6ECA6A9D829E9278
:10093800F28CF28E030E3B6E8A0E3A6E560EE82E3D
:10094800FED73A2EFCD73B2EFAD72FEC0BF0030E2E
:100958003B6E8A0E3A6E560EE82EFED73A2EFCD71C
:100968003B2EFAD767EC06F0030E3B6E8A0E3A6E02
:10097800560EE82EFED73A2EFCD73B2EFAD749EC76
:1009880009F0030E3B6E8A0E3A6E560EE82EFED71D
:100998003A2EFCD73B2EFAD7E2EC0AF0820E3A6EDA
:1009A800DE0EE82EFED73A2EFCD7406A3E6A3F6A32
:1009B800000E3D6E000E3C6E3E504018D8B4E7EF76
:1009C80004F0E9EF04F025EF05F0310E4018D8A443
:1009D800F0EF04F0F2EF04F0FAEF04F0BDEC07F0EA
:1009E80032C03CF033C03DF021EF05F0320E401824
:1009F800D8A401EF05F003EF05F007EF05F046EC8A
:100A080005F021EF05F0330E4018D8A40EEF05F0DD
:100A180010EF05F014EF05F058EC07F021EF05F0A2
:100A2800340E4018D8A41BEF05F01DEF05F021EF98
:100A380005F06AEC08F021EF05F040C03EF0010E29
:100A48003F6E3F04D8A42BEF05F02DEF05F034EFEF
:100A580005F03CC02CF03DC02DF08EEC0AF03F6A4A
:100A68004A50D8B43AEF05F03CEF05F0E0EF04F057
:100A78004BC040F040500EEC0BF04A6AE0EF04F037
:100A880007EF00F0010E1B6E060E1A6E010E1D6EAA
:100A9800F40E1C6EF6EC02F0030E2C6E8A0E2B6E12
:100AA800560EE82EFED72B2EFCD72C2EFAD7010E89
:100AB8001B6E260E1A6E010E1D6EF40E1C6EF6ECE1
:100AC80002F0030E2C6E8A0E2B6E560EE82EFED701
:100AD8002B2EFCD72C2EFAD7010E1B6E4A0E1A6E3F
:100AE800010E1D6EF40E1C6EF6EC02F0030E2C6E59
:100AF8008A0E2B6E560EE82EFED72B2EFCD72C2EE8
:100B0800FAD7010E1B6E5D0E1A6E010E1D6EF40EE5
:100B18001C6EF6EC02F0030E2C6E8A0E2B6E560E2F
:100B2800E82EFED72B2EFCD72C2EFAD7010E1B6EE3
:100B3800880E1A6E010E1D6EF40E1C6EF6EC02F095
:100B4800030E2C6E8A0E2B6E560EE82EFED72B2E19
:100B5800FCD72C2EFAD7010E1B6EB80E1A6E010E9A
:100B68001D6EF40E1C6EF6EC02F0030E2C6E8A0E4F
:100B78002B6E560EE82EFED72B2EFCD72C2EFAD72E
:100B8800010E1B6ED20E1A6E010E1D6EF40E1C6E37
:100B9800F6EC02F0030E2C6E8A0E2B6E560EE82E23
:100BA800FED72B2EFCD72C2EFAD7020E1B6E0B0E5F
:100BB8001A6E010E1D6EF40E1C6EF6EC02F0120099
:100BC8002A342B34316E3150D8A4EDEF05F0EFEF15
:100BD80005F0F9EF05F0000E286E000E296E000EE4
:100BE8002A6E000E2B6E66EF06F028C02CF029C086
:100BF8002DF02AC02EF02BC02FF0200E09EF06F0A2
:100C0800D8902F322E322D322C32E82E04EF06F0F7
:100C18002C50306E2A8EFF0E2816FF0E2916FF0E56
:100C28002A16000E2B16960E315E31BE20EF06F006
:100C38001EEF06F036EF06F03150800A970FD8B055
:100C480028EF06F02AEF06F02CEF06F0EFEF05F09C
:100C5800D8902B322A3229322832313E2CEF06F036
:100C68004EEF06F01F0E31643CEF06F03EEF06F043
:100C780046EF06F0EFEF05F0D890283629362A36E9
:100C88002B3631063150D8A44CEF06F04EEF06F063
:100C980040EF06F03050D8B454EF06F056EF06F0A7
:100CA8005EEF06F02B1E2A1E291E286C000E292234
:100CB8002A222B2228C028F029C029F02AC02AF08D
:100CC8002BC02BF0120024EC0BF0780E00EC0BF08C
:100CD800000E00EC0BF0AE0EF1EC0AF0D50EF1ECC4
:100CE8000AF0800EF1EC0AF0A80EF1EC0AF03F0EC3
:100CF800F1EC0AF0D30EF1EC0AF0000EF1EC0AF078
:100D0800400EF1EC0AF08D0EF1EC0AF0140EF1EC45
:100D18000AF0200EF1EC0AF0000EF1EC0AF0A10E38
:100D2800F1EC0AF0C80EF1EC0AF0DA0EF1EC0AF078
:100D3800120EF1EC0AF0810EF1EC0AF07F0EF1ECE4
:100D48000AF0D90EF1EC0AF0F10EF1EC0AF0DB0E24
:100D5800F1EC0AF0400EF1EC0AF0A40EF1EC0AF006
:100D6800A60EF1EC0AF0AF0EF1EC0AF019EC0BF05C
:100D7800030E056E8A0E046E560EE82EFED7042E5C
:100D8800FCD7052EFAD724EC0BF0780E00EC0BF00C
:100D9800000E00EC0BF0210E00EC0BF0000E00EC46
:100DA8000BF07F0E00EC0BF0220E00EC0BF0000EA7
:100DB80000EC0BF0070E00EC0BF019EC0BF0120036
:100DC800000E166E000E156E4BEF07F00A50152434
:100DD800D96EDA6A7F0EDF60F4EF06F0F6EF06F000
:100DE80018EF07F0100E016E0A501524D96EDA6A52
:100DF800DF500B6E0B50050DF3CF0CF0F4CF0DF058
:100E0800600E0C240E6EFF0E0D200F6E170E0E24B2
:100E1800026E7E0E0F20036E000E056E050E046E28
:100E28000FEC0AF024EF07F0100E016EF20E026EBE
:100E38007F0E036E000E056E050E046E0FEC0AF0B1
:100E480024EC0BF0780E00EC0BF0400E00EC0BF0ED
:100E5800000E186E000E176E1750100FD96EDA6A52
:100E6800DF5000EC0BF0174A182A18BE45EF07F0C0
:100E7800185009E1050E175CD8A045EF07F047EFB9
:100E880007F030EF07F019EC0BF0154A162A0A5054
:100E98001524D96EDA6ADF50D8A455EF07F057EF5A
:100EA80007F0EAEF06F01200010E1B6EB80E1A6E7C
:100EB800000E1D6E960E1C6EF6EC02F0C30E2B6E25
:100EC800CD0EE82EFED72B2EFCD70000010E1B6E90
:100ED800880E1A6E000E1D6E960E1C6EF6EC02F051
:100EE800C30E2B6ECD0EE82EFED72B2EFCD700009E
:100EF800010E1B6E720E1A6E000E1D6E960E1C6E83
:100F0800F6EC02F0C30E2B6ECD0EE82EFED72B2E7C
:100F1800FCD70000010E1B6E880E1A6E000E1D6EA7
:100F2800960E1C6EF6EC02F0C30E2B6ECD0EE82E5C
:100F3800FED72B2EFCD70000010E1B6E9F0E1A6EDB
:100F4800000E1D6E960E1C6EF6EC02F0C30E2B6E94
:100F5800CD0EE82EFED72B2EFCD70000010E1B6EFF
:100F6800720E1A6E000E1D6EC80E1C6EF6EC02F0A4
:100F78001200000E396E000E386ECF6ACE6A9E904F
:100F88008C9400D08C84030EE82EFED700D08C946D
:100F980083A6D1EF07F0D3EF07F0CCEF07F0CD80B1
:100FA80083B6D9EF07F0DBEF07F0D4EF07F0CD9069
:100FB800CE50CFCF34F0356A34C035F0346A3410AF
:100FC800386E3550396E280E136E7E0E146E0C0E68
:100FD800156E3D0E166E38C001F039C002F0036A76
:100FE800046A000E1CEC02F001C00FF002C010F001
:100FF80003C011F004C012F009EC00F00FC028F093
:1010080010C029F011C02AF012C02BF0E4EC05F052
:1010180028C036F029C037F036C032F037C033F078
:1010280012000350D8B41BEF08F01DEF08F025EFAD
:1010380008F00350D8A423EF08F025EF08F02AEFB2
:1010480008F001503BEC0BF069EF08F00350D96E43
:10105800DA6A090ED926DE50DE10D8B436EF08F069
:1010680038EF08F051EF08F00350D96EDA6A090E2C
:10107800D9260350E16EE26A020EE126DE50E65CF4
:10108800E650800A086EDE50800A0858D8B04FEF44
:1010980008F051EF08F069EF08F00350D96EDA6AEA
:1010A800020ED926DF50046E0350D96EDA6ADF507B
:1010B8000424D96EDA6A01C0DFFF0350D96EDA6AF8
:1010C800020ED926DE2A000EDD221200030E1B6E48
:1010D800700E1A6E000E1D6E500E1C6EF6EC02F0AD
:1010E800680E2B6EE40EE82EFED72B2EFCD700D010
:1010F800030E1B6EDC0E1A6E000E1D6E500E1C6E5B
:10110800F6EC02F0680E2B6EE40EE82EFED72B2EBE
:10111800FCD700D0040E1B6E970E1A6E000E1D6EC3
:10112800640E1C6EF6EC02F0B60E2B6ED00EE82E96
:10113800FED72B2EFCD700D0060E1B6E200E1A6E83
:10114800000E1D6E780E1C6EF6EC02F09C0E2B6ED7
:10115800D70EE82EFED72B2EFCD70000060E1B6EEE
:10116800E00E1A6E000E1D6EB40E1C6EF6EC02F048
:101178001200000E156E000E166E000E176E000E91
:10118800186E1150121013101410D8B4CEEF08F0C6
:10119800D0EF08F006EF09F0010E196EDAEF08F04B
:1011A800D8901136123613361436192A14AEDFEFDA
:1011B80008F0E1EF08F0D4EF08F0D89015361636AD
:1011C8001736183611500D5C12500E5813500F5820
:1011D80014501058D8A0F3EF08F0F5EF08F0FEEF20
:1011E80008F011500D5E12500E5A13500F5A145039
:1011F800105A1580D8901432133212321132192E27
:10120800E1EF08F015C00DF016C00EF017C00FF092
:1012180018C010F01200000E066E000E056E035086
:101228000410D8B41AEF09F01CEF09F044EF09F0E4
:10123800010E076E24EF09F0D89003360436072A0A
:1012480004AE29EF09F02BEF09F020EF09F0D89050
:10125800053606360350015C04500258D8A037EF13
:1012680009F039EF09F03EEF09F00350015E045030
:10127800025A0580D89004320332072E2BEF09F06A
:1012880005C001F006C002F0120024EC0BF0780E45
:1012980000EC0BF0400E00EC0BF0000E046E000E9C
:1012A800036E000E066E000E056E000E00EC0BF0CD
:1012B800054A062A06BE6AEF09F0065009E1800EC3
:1012C800055CD8A06AEF09F06CEF09F059EF09F056
:1012D800034A042A04BE7AEF09F0045009E1080E13
:1012E800035CD8A07AEF09F07CEF09F055EF09F01C
:1012F80019EC0BF01200000E096E000E0A6E000EBB
:101308000B6E000E0C6E01A08CEF09F08EEF09F049
:1013180096EF09F00550092606500A2207500B22BD
:1013280008500C22D8900536063607360836D8906D
:101338000432033202320132015002100310041049
:10134800D8A4A9EF09F0ABEF09F087EF09F009C0BD
:1013580001F00AC002F00BC003F00CC004F0120048
:1013680003500410D8B4BBEF09F0BDEF09F0E1EF6A
:1013780009F0010E056EC5EF09F0D8900336043662
:10138800052A04AECAEF09F0CCEF09F0C1EF09F065
:101398000350015C04500258D8A0D5EF09F0D7EFEC
:1013A80009F0DBEF09F00350015E0450025AD890AF
:1013B80004320332052ECCEF09F001C001F002C05F
:1013C80002F0120006009EAAECEF09F0EEEF09F019
:1013D800F0EF09F036EC0BF09EA2F5EF09F0F7EF0D
:1013E80009F00DEF0AF09E9241504210431044104C
:1013F800D8B401EF0AF003EF0AF00BEF0AF08C7291
:101408004106000E425A435A445A0DEF0AF0CA9454
:101418008C924C92110002C006F003C007F001C084
:1014280009F026EF0AF006C0F6FF07C0F7FF08002C
:10143800F5CF08F0064A072A0950D96EDA6A08C0BB
:10144800DFFF092A0406D8A00506042806E10528B6
:10145800D8A431EF0AF033EF0AF017EF0AF01200C0
:1014680016C019F017C01AF042EF0AF015C009F0BB
:10147800190E0A6E18C00BF0C8EC03F019C0F6FF7D
:101488001AC0F7FF0800F5500009D8A44EEF0AF07B
:1014980050EF0AF03AEF0AF0000E166E000E156EC5
:1014A800120024EC0BF0780E00EC0BF0000E00ECB0
:1014B8000BF0210E00EC0BF0000E00EC0BF07F0E91
:1014C80000EC0BF0220E00EC0BF0000E00EC0BF021
:1014D800070E00EC0BF019EC0BF012001E0E206E3C
:1014E8001BC021F0000E246E000E236E000E2B6E22
:1014F800000E2A6E210E156E1CC016F01DC017F0C6
:10150800200E186E34EC0AF01B502324D96EDA6AC8
:10151800DF6A120049EC09F055EC0AF02E0E1B6E3A
:10152800F70E1C6E7F0E1D6E2CC01EF02DC01FF016
:1015380072EC0AF02E0E026EA7EC0AF02E0E0A6E5E
:10154800E4EC06F01200B0EF0AF00250D96EDA6A45
:10155800DF500EEC0BF0022A0250D96EDA6ADF5027
:10156800D8A4B9EF0AF0BBEF0AF0A9EF0AF012000D
:1015780000EE60F0200EEE6AE806FDE100EE41F0B4
:101588000B0EEE6AE806FDE14C904C92000EF86EE8
:1015980000018BEF04F0C5CF01F01F0E0116D8A48F
:1015A800D8EF0AF0DAEF0AF0CFEF0AF0C7B4DFEFAE
:1015B8000AF0E1EF0AF0CFEF0AF01200670EAF6E03
:1015C800B06AAC84B886AC98AB8E9D8AF28CF28EE9
:1015D800AB9CAB88AC9CAC8A1200036E24EC0BF07D
:1015E800780E00EC0BF0000E00EC0BF0035000EC52
:1015F8000BF019EC0BF01200026ECFEC0AF002C0EF
:10160800C9FF9EA60AEF0BF00CEF0BF005EF0BF0ED
:101618009E961200016E9EA814EF0BF016EF0BF0C9
:101628000FEF0BF001C0ADFF1200CFEC0AF0C5843C
:10163800C5B421EF0BF023EF0BF01CEF0BF01200F9
:10164800CFEC0AF0C580C5B02CEF0BF02EEF0BF0F5
:1016580027EF0BF01200280EC66EC56A090EC86E79
:10166800C76A1200AECF4BF0010E4A6E120012008C
:107E160000000000000000005F00000003000300F7
:107E2600143E143E14242A7F2A1243330866613610
:107E3600495522500005030000001C224100004164
:107E4600221C0014083E081408083E08080050309A
:107E560000000808080808006060000020100804F8
:107E6600023E5149453E04027F00004261514946A7
:107E760022414949361814127F1027454545393E97
:107E860049494932010171090736494949362649A6
:107E960049493E00363600000056360000081422D6
:107EA600410014141414140041221408020151094B
:107EB600063E4159555E7E0909097E7F4949493684
:107EC6003E414141227F4141413E7F494949417FEF
:107ED600090909013E4141493A7F0808087F0041E6
:107EE6007F4100304040403F7F081422417F4040A0
:107EF60040407F020C027F7F0204087F3E414141E1
:107F06003E7F090909061E2121215E7F090909769E
:107F1600264949493201017F01013F4040403F1F48
:107F26002040201F7F2010207F41221C224107086D
:107F36007008076151494543007F4100000204086B
:107F460010200000417F000402010204404040402E
:107F560040000102040020545454787F44444438BD
:107F66003844444444384444447F385454541804F0
:107F7600047E0505085454543C7F080404780044E4
:107F86007D40002040443D007F1028440000417F92
:107F960040007C047804787C08040478384444441F
:107FA600387C14141408081414147C007C08040487
:107FB600485454542004043F44443C4040207C1C14
:107FC6002040201C3C4030403C44281028440C50A3
:107FD60050503C4464544C44000836414100007FF4
:107FE600000041413608000201020402FF8181813E
:097FF600FF257520636D0A0000EF
:020000040030CA
:0E000000FF08191EFF0281FF0FC00FE00F4026
:00000001FF
