:04000000FEEF3FF0E0
:1079FA00000EF86E0001AAEF3DF0280EC66EC56AA9
:107A0A00090EC86EC76A12003CEC3DF0C580C5B0CD
:107A1A0011EF3DF013EF3DF00CEF3DF012003CEC9E
:107A2A003DF0C584C5B41CEF3DF01EEF3DF017EFE5
:107A3A003DF01200026E3CEC3DF002C0C9FF9EA66A
:107A4A0029EF3DF02BEF3DF024EF3DF09E9612001A
:107A5A00036E09EC3DF0780E1FEC3DF0000E1FECB2
:107A6A003DF003501FEC3DF014EC3DF01200C5CF81
:107A7A0001F01F0E0116D8A445EF3DF047EF3DF087
:107A8A003CEF3DF0C7B44CEF3DF04EEF3DF03CEF1C
:107A9A003DF0120002C006F003C007F001C009F071
:107AAA0066EF3DF006C0F6FF07C0F7FF0800F5CF06
:107ABA0008F0064A072A0950D96EDA6A08C0DFFFB9
:107ACA00092A0406D8A00506042806E10528D8A430
:107ADA0071EF3DF073EF3DF057EF3DF0120009EC06
:107AEA003DF0780E1FEC3DF0400E1FEC3DF0000E0D
:107AFA00046E000E036E000E066E000E056E000E7A
:107B0A001FEC3DF0054A062A06BE95EF3DF00650E9
:107B1A0009E1800E055CD8A095EF3DF097EF3DF0A6
:107B2A0084EF3DF0034A042A04BEA5EF3DF0045059
:107B3A0009E1080E035CD8A0A5EF3DF0A7EF3DF0E0
:107B4A0080EF3DF014EC3DF01200620ED36E956AA0
:107B5A009468030E1C6E8A0E1B6E560EE82EFED714
:107B6A001B2EFCD71C2EFAD702EC3DF0030E1C6E1E
:107B7A008A0E1B6E560EE82EFED71B2EFCD71C2E25
:107B8A00FAD702EC3EF0030E1C6E8A0E1B6E560EDE
:107B9A00E82EFED71B2EFCD71C2EFAD774EC3DF02C
:107BAA00030E1C6E8A0E1B6E560EE82EFED71B2E77
:107BBA00FCD71C2EFAD7EF0E0A6E7F0E0B6E7FECE7
:107BCA003EF0060E1C6E130E1B6EAE0EE82EFED78E
:107BDA001B2EFCD71C2EFAD78C92060E1C6E130E87
:107BEA001B6EAE0EE82EFED71B2EFCD71C2EFAD724
:107BFA008C82E6EF3DF0FEEF3FF009EC3DF0780EA7
:107C0A001FEC3DF0000E1FEC3DF0AE0E2DEC3DF0EA
:107C1A00D50E2DEC3DF0800E2DEC3DF0A80E2DEC8E
:107C2A003DF03F0E2DEC3DF0D30E2DEC3DF0000E55
:107C3A002DEC3DF0400E2DEC3DF08D0E2DEC3DF07F
:107C4A00140E2DEC3DF0200E2DEC3DF0000E2DEC27
:107C5A003DF0A10E2DEC3DF0C80E2DEC3DF0DA0EF4
:107C6A002DEC3DF0120E2DEC3DF0810E2DEC3DF089
:107C7A007F0E2DEC3DF0D90E2DEC3DF0F10E2DECE2
:107C8A003DF0DB0E2DEC3DF0400E2DEC3DF0A40E48
:107C9A002DEC3DF0A60E2DEC3DF0AF0E2DEC3DF097
:107CAA0014EC3DF0030E056E8A0E046E560EE82E95
:107CBA00FED7042EFCD7052EFAD709EC3DF0780E34
:107CCA001FEC3DF0000E1FEC3DF0210E1FEC3DF0C5
:107CDA00000E1FEC3DF07F0E1FEC3DF0220E1FEC54
:107CEA003DF0000E1FEC3DF0070E1FEC3DF014ECCA
:107CFA003DF01200000E186E000E176EF2EF3EF005
:107D0A0017500A240C6E18500B200D6E0CC0F6FF8B
:107D1A000DC0F7FF7F0E0800F56096EF3EF098EF72
:107D2A003EF0BFEF3EF0120E016E17500A240C6EA1
:107D3A0018500B200D6E0CC0F6FF0DC0F7FF08009F
:107D4A00F550050DF3CF0EF0F4CF0FF0600E0E24B0
:107D5A00106EFF0E0F20116E0F0E1024026E7E0E93
:107D6A001120036E000E056E050E046E4FEC3DF0F9
:107D7A00CBEF3EF0120E016EEA0E026E7F0E036E1C
:107D8A00000E056E050E046E4FEC3DF009EC3DF059
:107D9A00780E1FEC3DF0400E1FEC3DF0000E1A6EFF
:107DAA00000E196E1950120FD96EDA6ADF501FECE5
:107DBA003DF0194A1A2A1ABEECEF3EF01A5009E1B0
:107DCA00050E195CD8A0ECEF3EF0EEEF3EF0D7EFCF
:107DDA003EF014EC3DF0174A182A17500A240C6E8C
:107DEA0018500B200D6E0CC0F6FF0DC0F7FF0800EF
:107DFA00F5500009D8A404EF3FF006EF3FF085EFF5
:107E0A003EF0120000000000000000005F000000C9
:107E1A0003000300143E143E14242A7F2A1243331B
:107E2A0008666136495522500005030000001C22ED
:107E3A0041000041221C0014083E081408083E08AC
:107E4A0008005030000008080808080060600000B8
:107E5A0020100804023E5149453E04027F000042B8
:107E6A006151494622414949361814127F10274563
:107E7A004545393E4949493201017109073649499F
:107E8A004936264949493E00363600000056360032
:107E9A000008142241001414141414004122140876
:107EAA0002015109063E4159555E7E0909097E7F44
:107EBA00494949363E414141227F4141413E7F493C
:107ECA004949417F090909013E4141493A7F080868
:107EDA00087F00417F4100304040403F7F08142224
:107EEA00417F404040407F020C027F7F0204087FAE
:107EFA003E4141413E7F090909061E2121215E7F3B
:107F0A0009090976264949493201017F01013F40A1
:107F1A0040403F1F2040201F7F2010207F41221C0D
:107F2A00224107087008076151494543007F410013
:107F3A000002040810200000417F0004020102042C
:107F4A004040404040000102040020545454787FCD
:107F5A00444444383844444444384444447F3854BC
:107F6A0054541804047E0505085454543C7F0804EC
:107F7A00047800447D40002040443D007F1028449E
:107F8A000000417F40007C047804787C080404786F
:107F9A0038444444387C14141408081414147C001B
:107FAA007C080404485454542004043F44443C408C
:107FBA0040207C1C2040201C3C4030403C4428107F
:107FCA0028440C5050503C4464544C4400083641F8
:107FDA004100007F0000414136080002010204020C
:107FEA00FF818181FF48656C6C6F20776F726C64CA
:067FFA000000FDEF3CF069
:020000040030CA
:0E000000FF08191EFF0281FF0FC00FE00F4026
:00000001FF
