:0400000007EF00F016
:100008004C8220ED0BF0F6EF0BF01250800B1B6EBC
:1000180012501224216E11AE14EF00F016EF00F00A
:1000280017EF00F021802150D8B41DEF00F01FEF2A
:1000380000F032EF00F02128D8A425EF00F027EFD8
:1000480000F02FEF00F0000E0F6E000E106E000E85
:10005800116E000E126E118E3AEF00F0000E0F6E48
:10006800000E106E000E116E000E126E1650800BF0
:100078001B1A16501624206E15AE45EF00F047EFF8
:1000880000F048EF00F020802050D8B44EEF00F088
:1000980050EF00F063EF00F02028D8A456EF00F0EE
:1000A80058EF00F060EF00F0000E136E000E146EB3
:1000B800000E156E000E166E158E6BEF00F0000E1A
:1000C800136E000E146E000E156E000E166E205084
:1000D800D8B471EF00F073EF00F07BEF00F021501F
:1000E800D8A479EF00F07BEF00F085EF00F0000E68
:1000F8000F6E000E106E000E116E000E126E1BEFCA
:1001080002F015500F02F3CF26F0F4CF27F0265057
:100118001C6E1D6A1E6A1F6A2750226E236A246A93
:10012800256A14501002F3CF26F0F4CF27F026509A
:100138001C26000E1D221E221F2227502226000EDA
:1001480023222422252213501102F3CF26F0F4CFC4
:1001580027F026501C26000E1D221E221F22275083
:100168002226000E2322242225221EC01FF01DC095
:100178001EF01CC01DF01C6A13501002F3CF26F0AD
:10018800F4CF27F026501C2627501D22000E1E22D1
:10019800000E1F2214500F02F3CF26F0F4CF27F0E1
:1001A80026501C2627501D22000E1E22000E1F223C
:1001B8001EC01FF01DC01EF01CC01DF01C6A13508D
:1001C8000F02F3CF26F0F4CF27F026501C26275035
:1001D8001D22000E1E22000E1F2215501002F3CF02
:1001E80026F0F4CF27F02650222627502322000E8F
:1001F8002422000E252214501102F3CF26F0F4CF4A
:1002080027F02650222627502322000E2422000EF3
:10021800252215501102F3CF26F0F4CF27F02650EF
:10022800176E2750186E196A1A6A19C01AF018C082
:1002380019F017C018F0176A1750222618502322F1
:10024800195024221A5025221CC017F01DC018F07E
:100258001EC019F01FC01AF0190E38EF01F0D8901F
:100268001A32193218321732E82E33EF01F01750CC
:10027800222618502322195024221A5025221EC043
:100288001FF01DC01EF01CC01DF01C6A205021C0AC
:1002980017F0186A1726000E1822820E1724266EE9
:1002A800FF0E1820276E6EEF01F0D8902236233605
:1002B800243625361FAE63EF01F065EF01F066EFD7
:1002C80001F02280D8901C361D361E361F362606B1
:1002D800D8A0270624AE73EF01F075EF01F059EFAF
:1002E80001F0206A1FAE7BEF01F07DEF01F0A1EF76
:1002F80001F0FF0E1C14176EFF0E1D14186EFF0E72
:100308001E14196E7F0E1F141A6E1750181019102C
:100318001A10D8B492EF01F094EF01F098EF01F0C1
:10032800010E206EA1EF01F022A09DEF01F09FEFDA
:1003380001F0A1EF01F094EF01F02050D8B4A7EF3D
:1003480001F0A9EF01F0CDEF01F0010E2226000E19
:1003580023222422252225A0B4EF01F0B6EF01F0D4
:10036800CDEF01F022C017F023C018F024C019F017
:1003780025C01AF01A341A3219321832173217C037
:1003880022F018C023F019C024F01AC025F0264A1C
:10039800272A27BED8EF01F0275008E12628D8A041
:1003A800D8EF01F0DAEF01F0E4EF01F0000E226E71
:1003B800000E236E800E246E7F0E256E11EF02F064
:1003C80027BEF1EF01F0275006E12604D8B0EFEF81
:1003D80001F0F1EF01F0FCEF01F0000E226E000ECB
:1003E800236E000E246E000E256E1B6A11EF02F0BC
:1003F80026C021F0FF0E2216FF0E23167F0E2416AC
:10040800000E251621A00BEF02F00DEF02F00EEF03
:1004180002F0248ED8902130256E1B50251222C060
:100428000FF023C010F024C011F025C012F0120004
:10043800000E366E320E356E35C01AF036C01BF01F
:10044800000E1D6E050E1C6E83EC04F0070E2B6E5D
:100458007D0EE82EFED72B2EFCD70000EC0E35249F
:100468001A6EFF0E36201B6E000E1D6E050E1C6EDA
:1004780083EC04F0070E2B6E7D0EE82EFED72B2E94
:10048800FCD70000320E3524356E000E3620366E4D
:1004980036BE58EF02F0DC0E355C050E3658D8A093
:1004A80058EF02F05AEF02F020EF02F0030E2C6E24
:1004B8008A0E2B6E560EE82EFED72B2EFCD72C2E2E
:1004C800FAD7050E386EDC0E376E37C01AF038C012
:1004D8001BF0000E1D6E050E1C6E83EC04F0070E5B
:1004E8002B6E7D0EE82EFED72B2EFCD70000EC0ECF
:1004F80037241A6EFF0E38201B6E000E1D6E050E77
:100508001C6E83EC04F0070E2B6E7D0EE82EFED7D2
:100518002B2EFCD70000E70E3724376EFF0E38204D
:10052800386E38BEA3EF02F0385007E1330E375C5F
:10053800D8B0A1EF02F0A3EF02F069EF02F0030ECA
:100548002C6E8A0E2B6E560EE82EFED72B2EFCD75D
:100558002C2EFAD7000E2E6E000E2D6E050E1B6E79
:10056800DC0E1A6E000E1D6E050E1C6E83EC04F078
:10057800070E2B6E7D0EE82EFED72B2EFCD7000023
:10058800050E1B6EC80E1A6E000E1D6E050E1C6E33
:1005980083EC04F0070E2B6E7D0EE82EFED72B2E73
:1005A800FCD700002D4A2E2A2EBEE4EF02F02E5072
:1005B80009E1140E2D5CD8A0E4EF02F0E6EF02F09A
:1005C800B2EF02F0410E2B6EEE0EE82EFED72B2E68
:1005D800FCD700D0000E306E000E2F6E060E1B6E7C
:1005E8000E0E1A6E000E1D6E050E1C6E83EC04F0C6
:1005F800070E2B6E7D0EE82EFED72B2EFCD70000A3
:10060800050E1B6EFA0E1A6E000E1D6E050E1C6E80
:1006180083EC04F0070E2B6E7D0EE82EFED72B2EF2
:10062800FCD700002F4A302A30BE24EF03F03050A8
:1006380009E10A0E2F5CD8A024EF03F026EF03F09F
:10064800F2EF02F0030E2C6E8A0E2B6E560EE82E79
:10065800FED72B2EFCD72C2EFAD7000E326E000EAA
:10066800316E020E1B6EEE0E1A6E000E1D6E050E1A
:100678001C6E83EC04F0070E2B6E7D0EE82EFED761
:100688002B2EFCD70000020E1B6EDA0E1A6E000E1F
:100698001D6E050E1C6E83EC04F0070E2B6E7D0E8E
:1006A800E82EFED72B2EFCD70000314A322A32BE64
:1006B80067EF03F0325009E10A0E315CD8A067EF0A
:1006C80003F069EF03F035EF03F0820E2B6EDE0EB8
:1006D800E82EFED72B2EFCD7000E346E000E336E9C
:1006E800020E1B6EBC0E1A6E000E1D6E050E1C6EE1
:1006F80083EC04F0070E2B6E7D0EE82EFED72B2E12
:10070800FCD70000020E1B6EA80E1A6E000E1D6E9E
:10071800050E1C6E83EC04F0070E2B6E7D0EE82E82
:10072800FED72B2EFCD70000334A342A34BEA6EF5E
:1007380003F0345009E1140E335CD8A0A6EF03F09F
:10074800A8EF03F074EF03F01200096E0950D8B453
:10075800B0EF03F0B2EF03F0D4EF03F004BEB9EF4B
:1007680003F0B7EF03F0D4EF03F001C005F002C0C7
:1007780006F003C007F004C008F0051E061E071E99
:10078800081E052A000E06220722082205C00BF0C3
:1007980006C00CF007C00DF008C00EF0DCEF03F047
:1007A80001C00BF002C00CF003C00DF004C00EF045
:1007B8000150021003100410D8A4E5EF03F0E7EF8E
:1007C80003F0F1EF03F0000E016E000E026E000E52
:1007D800036E000E046E82EF04F0960E0A6EFBEFB5
:1007E80003F00A2AD8900E320D320C320B32000E6A
:1007F8000B14056E000E0C14066E000E0D14076E19
:10080800FE0E0E14086E0550061007100810D8A426
:1008180010EF04F012EF04F0F5EF03F020EF04F00E
:100828000A2A010E0B26000E0C220D220E22D89049
:100838000E320D320C320B32000E0B14056E000E08
:100848000C14066E000E0D14076EFF0E0E14086EC3
:100858000550061007100810D8A435EF04F037EF3C
:1008680004F014EF04F03FEF04F00A06D8900B36BA
:100878000C360D360E360DBE44EF04F046EF04F08C
:100888004EEF04F0020E0A604CEF04F04EEF04F055
:1008980039EF04F00AB053EF04F055EF04F056EFC7
:1008A80004F00D9ED8900A320AC005F0066A076A5D
:1008B800086A05C008F0076A066A056A05500B123F
:1008C80006500C1207500D1208500E120950D8B4D9
:1008D80070EF04F072EF04F07AEF04F004BE79EFE1
:1008E80004F077EF04F07AEF04F00E8E0BC001F0FD
:1008F8000CC002F00DC003F00EC004F012001A5034
:100908001B10D8A48AEF04F08CEF04F08EEF04F0EB
:1009180054EF05F0CA948C92400E0D6E420E0E6E86
:100928000F0E0F6E000E106E1AC011F01BC012F0E1
:10093800136A146AF7EC09F00DC022F00EC023F018
:100948000FC024F010C025F022C01EF023C01FF0F5
:1009580024C020F025C021F0D890213220321F3247
:100968001E321EC029F01FC02AF02904010E2A5881
:10097800D8B0C1EF04F0C3EF04F0CCEF04F0286A5C
:10098800FF0E2924266EFF0E2A20276E1EEF05F083
:1009980029C01EF02AC01FF0D8901F321E32D890EE
:1009A8001F321E321E04010E1F58D8B0DEEF04F0AD
:1009B800E0EF04F0F4EF04F0010E286E29C01EF0F9
:1009C8002AC01FF0D8901F321E32D8901F321E3214
:1009D800FF0E1E24266EFF0E1F20276E1EEF05F049
:1009E80029C01EF02AC01FF0040E206ED8901F32B6
:1009F8001E32202EFAEF04F01E04010E1F58D8B044
:100A080008EF05F00AEF05F054EF05F0020E286E26
:100A180029C01EF02AC01FF0040E206ED8901F3285
:100A28001E32202E12EF05F0FF0E1E24266EFF0E3A
:100A38001F20276ECA502818FC0B2818CA6E26C01B
:100A4800CBFFCC6A9E921CC001F01DC002F0036A65
:100A5800046AE80E056E030E066E000E076E000EA1
:100A6800086EB9EC0AF001C00DF002C00EF003C028
:100A78000FF004C010F029C011F02AC012F0136A58
:100A8800146AF7EC09F00DC041F00EC042F00FC037
:100A980043F010C044F0030EE82EFED70000CA84CD
:100AA80012000A50D96EDA6ADECFF6FFDDCFF7FF03
:100AB8000800F550250AD8A464EF05F066EF05F0A4
:100AC80006EF06F00A50D96EDA6ADE2A000EDD2239
:100AD800000E466E000E456E45C049F047684868EE
:100AE8000A50D96EDA6ADECF0EF0DDCF0FF00EC0F5
:100AF800F6FF0FC0F7FF0800F550750AD8A487EF76
:100B080005F089EF05F0FEEF05F00B50D96EDA6AB3
:100B1800020EDF26DF5CD96EDA6ADECF10F0DECF98
:100B280011F0010E0E240C6E000E0F200D6E0A50EF
:100B3800D96EDA6A0CC0DEFF0DC0DDFFF2EF05F0FA
:100B4800200E146E14061450600FD96EDA6A10C0A5
:100B580001F011C002F0000E046E0A0E036EEEECF6
:100B68000AF00150300FDF6E10C001F011C002F022
:100B7800000E046E0A0E036E49EC0AF001C010F074
:100B880002C011F010501110D8B4CDEF05F0CFEF1E
:100B980005F0E7EF05F01450D8A4D5EF05F0D7EF2E
:100BA80005F0A6EF05F0E7EF05F01450600FD96ED9
:100BB800DA6ADF500C6E0C50016E026A09C003F04D
:100BC800A2EC09F0142A200E1418D8A4EEEF05F0B0
:100BD800F0EF05F0D9EF05F017EF06F00EC0F6FFBD
:100BE8000FC0F7FF0800F550750AD8B4A4EF05F058
:100BF800FEEF05F00A50D96EDA6ADE2A000EDD2211
:100C080017EF06F00A50D96EDA6ADECFF6FFDDCFAD
:100C1800F7FF0800F550016E026A09C003F0A2EC64
:100C280009F0FEEF05F01200620ED36E0F0EC16ED2
:100C3800070EB46E956A9468949C958695949592DF
:100C4800100ECD6ECA6A9D829E92F28CF28E030EB1
:100C58003B6E8A0E3A6E560EE82EFED73A2EFCD719
:100C68003B2EFAD769EC0CF0030E3B6E8A0E3A6EF7
:100C7800560EE82EFED73A2EFCD73B2EFAD7F4ECC8
:100C880007F0030E3B6E8A0E3A6E560EE82EFED71C
:100C98003A2EFCD73B2EFAD783EC0AF0030E3B6EB4
:100CA8008A0E3A6E560EE82EFED73A2EFCD73B2E09
:100CB800FAD71CEC0CF0820E3A6EDE0EE82EFED748
:100CC8003A2EFCD7406A3E6A3F6A000E3D6E000E1F
:100CD8003C6E3E504018D8B474EF06F076EF06F03C
:100CE800B2EF06F0310E4018D8A47DEF06F07FEF82
:100CF80006F087EF06F04AEC09F032C03CF033C04A
:100D08003DF0AEEF06F0320E4018D8A48EEF06F094
:100D180090EF06F094EF06F0D3EC06F0AEEF06F095
:100D2800330E4018D8A49BEF06F09DEF06F0A1EF14
:100D380006F0E5EC08F0AEEF06F0340E4018D8A443
:100D4800A8EF06F0AAEF06F0AEEF06F01CEC02F0F2
:100D5800AEEF06F040C03EF0010E3F6E3F04D8A44F
:100D6800B8EF06F0BAEF06F0C1EF06F03CC02CF081
:100D78003DC02DF0C8EC0BF03F6A4A50D8B4C7EF1D
:100D880006F0C9EF06F06DEF06F04BC040F040509A
:100D980048EC0CF04A6A6DEF06F007EF00F0010E20
:100DA8001B6E060E1A6E010E1D6EF40E1C6E83EC81
:100DB80004F0030E2C6E8A0E2B6E560EE82EFED70C
:100DC8002B2EFCD72C2EFAD7010E1B6E260E1A6E70
:100DD800010E1D6EF40E1C6E83EC04F0030E2C6ED7
:100DE8008A0E2B6E560EE82EFED72B2EFCD72C2EF5
:100DF800FAD7010E1B6E4A0E1A6E010E1D6EF40E06
:100E08001C6E83EC04F0030E2C6E8A0E2B6E560EAD
:100E1800E82EFED72B2EFCD72C2EFAD7010E1B6EF0
:100E28005D0E1A6E010E1D6EF40E1C6E83EC04F03E
:100E3800030E2C6E8A0E2B6E560EE82EFED72B2E26
:100E4800FCD72C2EFAD7010E1B6E880E1A6E010ED7
:100E58001D6EF40E1C6E83EC04F0030E2C6E8A0ECD
:100E68002B6E560EE82EFED72B2EFCD72C2EFAD73B
:100E7800010E1B6EB80E1A6E010E1D6EF40E1C6E5E
:100E880083EC04F0030E2C6E8A0E2B6E560EE82EA1
:100E9800FED72B2EFCD72C2EFAD7010E1B6ED20EA6
:100EA8001A6E010E1D6EF40E1C6E83EC04F0030E18
:100EB8002C6E8A0E2B6E560EE82EFED72B2EFCD7E4
:100EC8002C2EFAD7020E1B6E0B0E1A6E010E1D6E1B
:100ED800F40E1C6E83EC04F012002A342B34316EAD
:100EE8003150D8A47AEF07F07CEF07F086EF07F0CF
:100EF800000E286E000E296E000E2A6E000E2B6E54
:100F0800F3EF07F028C02CF029C02DF02AC02EF0EE
:100F18002BC02FF0200E96EF07F0D8902F322E32EC
:100F28002D322C32E82E91EF07F02C50306E2A8E9D
:100F3800FF0E2816FF0E2916FF0E2A16000E2B1676
:100F4800960E315E31BEADEF07F0ABEF07F0C3EFA1
:100F580007F03150800A970FD8B0B5EF07F0B7EF18
:100F680007F0B9EF07F07CEF07F0D8902B322A3260
:100F780029322832313EB9EF07F0DBEF07F01F0EB8
:100F88003164C9EF07F0CBEF07F0D3EF07F07CEF40
:100F980007F0D890283629362A362B3631063150B4
:100FA800D8A4D9EF07F0DBEF07F0CDEF07F030500A
:100FB800D8B4E1EF07F0E3EF07F0EBEF07F02B1EF3
:100FC8002A1E291E286C000E29222A222B2228C01C
:100FD80028F029C029F02AC02AF02BC02BF01200D3
:100FE8005EEC0CF0780E3AEC0CF0000E3AEC0CF0DB
:100FF800AE0E2BEC0CF0D50E2BEC0CF0800E2BEC7F
:101008000CF0A80E2BEC0CF03F0E2BEC0CF0D30ED2
:101018002BEC0CF0000E2BEC0CF0400E2BEC0CF033
:101028008D0E2BEC0CF0140E2BEC0CF0200E2BEC90
:101038000CF0000E2BEC0CF0A10E2BEC0CF0C80EF3
:101048002BEC0CF0DA0E2BEC0CF0120E2BEC0CF057
:10105800810E2BEC0CF07F0E2BEC0CF0D90E2BEC48
:101068000CF0F10E2BEC0CF0DB0E2BEC0CF0400E20
:101078002BEC0CF0A40E2BEC0CF0A60E2BEC0CF0C9
:10108800AF0E2BEC0CF053EC0CF0030E056E8A0E31
:10109800046E560EE82EFED7042EFCD7052EFAD77E
:1010A8005EEC0CF0780E3AEC0CF0000E3AEC0CF01A
:1010B800210E3AEC0CF0000E3AEC0CF07F0E3AECF4
:1010C8000CF0220E3AEC0CF0000E3AEC0CF0070E85
:1010D8003AEC0CF053EC0CF01200000E166E000EF9
:1010E800156ED8EF08F00A501524D96EDA6A7F0E0B
:1010F800DF6081EF08F083EF08F0A5EF08F0100E2D
:10110800016E0A501524D96EDA6ADF500B6E0B5047
:10111800050DF3CF0CF0F4CF0DF0600E0C240E6E1D
:10112800FF0E0D200F6E170E0E24026E7E0E0F207E
:10113800036E000E056E050E046E49EC0BF0B1EF60
:1011480008F0100E016EF20E026E7F0E036E000E96
:10115800056E050E046E49EC0BF05EEC0CF0780E93
:101168003AEC0CF0400E3AEC0CF0000E186E000E43
:10117800176E1750100FD96EDA6ADF503AEC0CF080
:10118800174A182A18BED2EF08F0185009E1050EC0
:10119800175CD8A0D2EF08F0D4EF08F0BDEF08F044
:1011A80053EC0CF0154A162A0A501524D96EDA6A3F
:1011B800DF50D8A4E2EF08F0E4EF08F077EF08F08A
:1011C8001200010E1B6EB80E1A6E000E1D6E960EE2
:1011D8001C6E83EC04F0C30E2B6ECD0EE82EFED7EA
:1011E8002B2EFCD70000010E1B6E880E1A6E000E07
:1011F8001D6E960E1C6E83EC04F0C30E2B6ECD0E86
:10120800E82EFED72B2EFCD70000010E1B6E720EA7
:101218001A6E000E1D6E960E1C6E83EC04F0C30E43
:101228002B6ECD0EE82EFED72B2EFCD70000010E1C
:101238001B6E880E1A6E000E1D6E960E1C6E83ECC9
:1012480004F0C30E2B6ECD0EE82EFED72B2EFCD746
:101258000000010E1B6E9F0E1A6E000E1D6E960E7C
:101268001C6E83EC04F0C30E2B6ECD0EE82EFED759
:101278002B2EFCD70000010E1B6E720E1A6E000E8C
:101288001D6EC80E1C6E83EC04F01200000E396E41
:10129800000E386ECF6ACE6A9E908C9400D08C84F3
:1012A800030EE82EFED700D08C9483A65EEF09F0DB
:1012B80060EF09F059EF09F0CD8083B666EF09F0C9
:1012C80068EF09F061EF09F0CD90CE50CFCF34F040
:1012D800356A34C035F0346A3410386E3550396E9A
:1012E800280E136E7E0E146E0C0E156E3D0E166EC5
:1012F80038C001F039C002F0036A046A000EA9EC94
:1013080003F001C00FF002C010F003C011F004C0D8
:1013180012F009EC00F00FC028F010C029F011C03D
:101328002AF012C02BF071EC07F028C036F029C063
:1013380037F036C032F037C033F012000350D8B45B
:10134800A8EF09F0AAEF09F0B2EF09F00350D8A40A
:10135800B0EF09F0B2EF09F0B7EF09F0015075EC02
:101368000CF0F6EF09F00350D96EDA6A090ED926A7
:10137800DE50DE10D8B4C3EF09F0C5EF09F0DEEF98
:1013880009F00350D96EDA6A090ED9260350E16EC6
:10139800E26A020EE126DE50E65CE650800A086E3C
:1013A800DE50800A0858D8B0DCEF09F0DEEF09F00B
:1013B800F6EF09F00350D96EDA6A020ED926DF502B
:1013C800046E0350D96EDA6ADF500424D96EDA6AE3
:1013D80001C0DFFF0350D96EDA6A020ED926DE2A71
:1013E800000EDD221200000E156E000E166E000EA5
:1013F800176E000E186E1150121013101410D8B476
:1014080008EF0AF00AEF0AF040EF0AF0010E196E31
:1014180014EF0AF0D8901136123613361436192AFA
:1014280014AE19EF0AF01BEF0AF00EEF0AF0D8908D
:10143800153616361736183611500D5C12500E58E0
:1014480013500F5814501058D8A02DEF0AF02FEF52
:101458000AF038EF0AF011500D5E12500E5A135070
:101468000F5A1450105A1580D89014321332123271
:101478001132192E1BEF0AF015C00DF016C00EF030
:1014880017C00FF018C010F01200000E066E000E04
:10149800056E03500410D8B454EF0AF056EF0AF062
:1014A8007EEF0AF0010E076E5EEF0AF0D890033661
:1014B8000436072A04AE63EF0AF065EF0AF05AEF24
:1014C8000AF0D890053606360350015C04500258DD
:1014D800D8A071EF0AF073EF0AF078EF0AF0035022
:1014E800015E0450025A0580D89004320332072E58
:1014F80065EF0AF005C001F006C002F012005EECCC
:101508000CF0780E3AEC0CF0400E3AEC0CF0000EB1
:10151800046E000E036E000E066E000E056E000EC1
:101528003AEC0CF0054A062A06BEA4EF0AF006506B
:1015380009E1800E055CD8A0A4EF0AF0A6EF0AF036
:1015480093EF0AF0034A042A04BEB4EF0AF00450E9
:1015580009E1080E035CD8A0B4EF0AF0B6EF0AF070
:101568008FEF0AF053EC0CF01200000E096E000E1B
:101578000A6E000E0B6E000E0C6E01A0C6EF0AF08C
:10158800C8EF0AF0D0EF0AF00550092606500A22E3
:1015980007500B2208500C22D8900536063607361D
:1015A8000836D89004320332023201320150021058
:1015B80003100410D8A4E3EF0AF0E5EF0AF0C1EF36
:1015C8000AF009C001F00AC002F00BC003F00CC019
:1015D80004F0120003500410D8B4F5EF0AF0F7EF46
:1015E8000AF01BEF0BF0010E056EFFEF0AF0D89022
:1015F80003360436052A04AE04EF0BF006EF0BF0B1
:10160800FBEF0AF00350015C04500258D8A00FEF1A
:101618000BF011EF0BF015EF0BF00350015E0450C7
:10162800025AD89004320332052E06EF0BF001C09F
:1016380001F002C002F0120006009EAA26EF0BF08D
:1016480028EF0BF02AEF0BF070EC0CF09EA22FEFB6
:101658000BF031EF0BF047EF0BF09E924150421028
:1016680043104410D8B43BEF0BF03DEF0BF045EFBF
:101678000BF08C724106000E425A435A445A47EF07
:101688000BF0CA948C924C92110002C006F003C071
:1016980007F001C009F060EF0BF006C0F6FF07C0C5
:1016A800F7FF0800F5CF08F0064A072A0950D96E57
:1016B800DA6A08C0DFFF092A0406D8A0050604284C
:1016C80006E10528D8A46BEF0BF06DEF0BF051EF96
:1016D8000BF0120016C019F017C01AF07CEF0BF0CF
:1016E80015C009F0190E0A6E18C00BF055EC05F07C
:1016F80019C0F6FF1AC0F7FF0800F5500009D8A472
:1017080088EF0BF08AEF0BF074EF0BF0000E166EFB
:10171800000E156E12005EEC0CF0780E3AEC0CF030
:10172800000E3AEC0CF0210E3AEC0CF0000E3AECFC
:101738000CF07F0E3AEC0CF0220E3AEC0CF0000E96
:101748003AEC0CF0070E3AEC0CF053EC0CF01200EB
:101758001E0E206E1BC021F0000E246E000E236E9C
:10176800000E2B6E000E2A6E210E156E1CC016F090
:101778001DC017F0200E186E6EEC0BF01B502324C2
:10178800D96EDA6ADF6A120083EC0AF08FEC0BF08C
:101798002E0E1B6EF70E1C6E7F0E1D6E2CC01EF0DB
:1017A8002DC01FF0ACEC0BF02E0E026EE1EC0BF02E
:1017B8002E0E0A6E71EC08F01200EAEF0BF00250E0
:1017C800D96EDA6ADF5048EC0CF0022A0250D96E62
:1017D800DA6ADF50D8A4F3EF0BF0F5EF0BF0E3EF84
:1017E8000BF0120000EE60F0200EEE6AE806FDE154
:1017F80000EE41F00B0EEE6AE806FDE14C904C92CB
:10180800000EF86E000118EF06F0C5CF01F01F0EAC
:101818000116D8A412EF0CF014EF0CF009EF0CF03D
:10182800C7B419EF0CF01BEF0CF009EF0CF0120025
:10183800670EAF6EB06AAC84B886AC98AB8E9D8AE2
:10184800F28CF28EAB9CAB88AC9CAC8A1200036E17
:101858005EEC0CF0780E3AEC0CF0000E3AEC0CF062
:1018680003503AEC0CF053EC0CF01200026E09EC49
:101878000CF002C0C9FF9EA644EF0CF046EF0CF036
:101888003FEF0CF09E961200016E9EA84EEF0CF0F2
:1018980050EF0CF049EF0CF001C0ADFF120009EC5D
:1018A8000CF0C584C5B45BEF0CF05DEF0CF056EF9F
:1018B8000CF0120009EC0CF0C580C5B066EF0CF016
:1018C80068EF0CF061EF0CF01200280EC66EC56AC6
:1018D800090EC86EC76A1200AECF4BF0010E4A6EF1
:0418E80012001200D8
:107E160000000000000000005F00000003000300F7
:107E2600143E143E14242A7F2A1243330866613610
:107E3600495522500005030000001C224100004164
:107E4600221C0014083E081408083E08080050309A
:107E560000000808080808006060000020100804F8
:107E6600023E5149453E04027F00004261514946A7
:107E760022414949361814127F1027454545393E97
:107E860049494932010171090736494949362649A6
:107E960049493E00363600000056360000081422D6
:107EA600410014141414140041221408020151094B
:107EB600063E4159555E7E0909097E7F4949493684
:107EC6003E414141227F4141413E7F494949417FEF
:107ED600090909013E4141493A7F0808087F0041E6
:107EE6007F4100304040403F7F081422417F4040A0
:107EF60040407F020C027F7F0204087F3E414141E1
:107F06003E7F090909061E2121215E7F090909769E
:107F1600264949493201017F01013F4040403F1F48
:107F26002040201F7F2010207F41221C224107086D
:107F36007008076151494543007F4100000204086B
:107F460010200000417F000402010204404040402E
:107F560040000102040020545454787F44444438BD
:107F66003844444444384444447F385454541804F0
:107F7600047E0505085454543C7F080404780044E4
:107F86007D40002040443D007F1028440000417F92
:107F960040007C047804787C08040478384444441F
:107FA600387C14141408081414147C007C08040487
:107FB600485454542004043F44443C4040207C1C14
:107FC6002040201C3C4030403C44281028440C50A3
:107FD60050503C4464544C44000836414100007FF4
:107FE600000041413608000201020402FF8181813E
:097FF600FF257520636D0A0000EF
:020000040030CA
:0E000000FF08191EFF0281FF0FC00FE00F4026
:00000001FF
