:0400000007EF00F016
:100008005E82DDED19F03EEF1BF00001816B41C00F
:1000180084F042C085F043C086F044C087F087BFB3
:100028001AEF00F018EF00F02EEF00F0010E816FCC
:1000380084C001F085C002F086C003F087C004F0D8
:1000480008EC1BF001C084F002C085F003C086F004
:1000580004C087F0000E0001836F000E826FC7C0D6
:1000680071F0C8C072F08151D8B43DEF00F03FEF95
:1000780000F053EF00F08151D8A445EF00F047EFAE
:1000880000F04DEF00F0000E676F2B0E666F51EF1A
:1000980000F0000E676F2D0E666F66C081F084C099
:1000A80001F085C002F086C003F087C004F0E5ECDB
:1000B80014F001040210D8A464EF00F066EF00F019
:1000C80097EF00F000018151D8B46DEF00F06FEFA9
:1000D80000F078EF00F081C000F17107D8A0720736
:1000E800000E836F010E826F000E8225016E010ED5
:1000F8008321026EEF0E036E7F0E046EECEC1AF095
:100108000001FD0E7127FF0E722340C00FF0000E94
:10011800106E010E116E71C012F072C013F01AEC5D
:1001280019F0FEEF04F084C001F085C002F086C02B
:1001380003F087C004F0E5EC14F001500210D8A4D5
:10014800A8EF00F0AAEF00F0CAEF00F0000181511B
:10015800D8B4B1EF00F0B3EF00F0BCEF00F081C00D
:1001680000F17107D8A07207000E836F010E826F2D
:10017800000E8225016E010E8321026EF30E036EBE
:100188007F0E046EECEC1AF084EF00F0000E000114
:10019800886F000E896F800E8A6F3F0E8B6F000E7E
:1001A800706F000E6F6F84C001F085C002F086C0CA
:1001B80003F087C004F0000E056E000E066E000EF8
:1001C800076E000E086ECEEC17F0D8B0EEEF00F018
:1001D800F0EF00F0CFEF01F0FDEF00F073C088F012
:1001E80074C089F075C08AF076C08BF000016F4B3F
:1001F800702B88C00FF089C010F08AC011F08BC036
:1002080012F0000E136E000E146E200E156E410EC5
:10021800166E5AEC07F00FC073F010C074F011C0DE
:1002280075F012C076F000017351845D016E74514F
:100238008559026E75518659036E76518759046E39
:10024800B2EC19F004BE34EF01F0045003100210B0
:1002580009E1020E015CD8A034EF01F036EF01F09D
:10026800F2EF00F073C028F074C029F075C02AF0CE
:1002780076C02BF084C02CF085C02DF086C02EF0FF
:1002880087C02FF063EC14F0D8A04DEF01F04FEFCA
:1002980001F0F2EF00F000018851845D016E895190
:1002A8008559026E8A518659036E8B518759046E9F
:1002B800B2EC19F004BE6EEF01F004500310021006
:1002C80007E1020E015CD8B06CEF01F06EEF01F0AF
:1002D800B6EF01F088C084F089C085F08AC086F046
:1002E8008BC087F0CFEF01F088C00FF089C010F005
:1002F8008AC011F08BC012F0000E136E000E146E3F
:10030800200E156E410E166E6DEC09F00FC088F0C8
:1003180010C089F011C08AF012C08BF000016F077D
:10032800D8A070078851845D016E89518559026E85
:100338008A518659036E8B518759046EB2EC19F0B5
:1003480004BEB4EF01F004500310021007E1020EDE
:10035800015CD8B0B2EF01F0B4EF01F0B6EF01F0F4
:100368006EEF01F084C028F085C029F086C02AF01D
:1003780087C02BF088C02CF089C02DF08AC02EF0E1
:100388008BC02FF063EC14F0D8A0CDEF01F0CFEFC5
:1003980001F078EF01F045C069F069C06AF000012A
:1003A800CABFD9EF01F0DBEF01F0E1EF01F0C9C0FE
:1003B80062F0CAC063F0E5EF01F0000E636F060E4D
:1003C800626F62C06DF063C06EF06D4B6E2B660E8F
:1003D8006A19D8A4F2EF01F0F4EF01F014EF02F07B
:1003E80070BFFBEF01F0F9EF01F007EF02F0000E2C
:1003F800886F000E896F800E8A6F3F0E8B6F000E1C
:10040800706F000E6F6F670E6919D8B40EEF02F0A7
:1004180010EF02F014EF02F06F516D2770516E2348
:10042800000E786F000E776F84C079F085C07AF07F
:1004380086C07BF087C07CF088C073F089C074F0F8
:100448008AC075F08BC076F0A5EF02F079C00FF086
:100458007AC010F07BC011F07CC012F088C013F095
:1004680089C014F08AC015F08BC016F06DEC09F045
:100478000FC028F010C029F011C02AF012C02BF0CC
:100488004CEC0FF028C07DF029C07EF02AC07FF028
:100498002BC080F07DC028F07EC029F07FC02AF0F4
:1004A80080C02BF0E0EC13F028C06BF029C06CF092
:1004B80079C038F07AC039F07BC03AF07CC03BF0A4
:1004C8007DC013F07EC014F07FC015F080C016F018
:1004D80088C00FF089C010F08AC011F08BC012F0EC
:1004E8005AEC07F00FC03CF010C03DF011C03EF0D0
:1004F80012C03FF007EC1AF038C079F039C07AF032
:100508003AC07BF03BC07CF088C00FF089C010F087
:100518008AC011F08BC012F0000E136E000E146E1C
:10052800200E156E410E166E6DEC09F00FC088F0A6
:1005380010C089F011C08AF012C08BF00001774B0F
:10054800782B6D51775D7851800A466E6E51800A1E
:100558004658D8A0B2EF02F0B4EF02F02AEF02F04A
:1005680088C00FF089C010F08AC011F08BC012F05B
:10057800000E136E000E146EA00E156E400E166E51
:100588005AEC07F00FC07DF010C07EF011C07FF06C
:1005980012C080F079C028F07AC029F07BC02AF018
:1005A8007CC02BF07DC02CF07EC02DF07FC02EF0DB
:1005B80080C02FF063EC14F0D8B0E5EF02F0E7EF5D
:1005C80002F0F2EF02F0000E00017D6F000E7E6F68
:1005D800000E7F6F000E806F1BEF03F079C001F0F3
:1005E8007AC002F07BC003F07CC004F07DC005F047
:1005F8007EC006F07FC007F080C008F0CEEC17F090
:10060800D8A009EF03F00BEF03F01BEF03F0000194
:100618006BB111EF03F013EF03F01BEF03F0000EC3
:100628007D6F000E7E6F000E7F6F000E806F84C09E
:1006380028F085C029F086C02AF087C02BF07DC03D
:100648002CF07EC02DF07FC02EF080C02FF0FFEC84
:1006580004F028C079F029C07AF02AC07BF02BC0BA
:100668007CF079C028F07AC029F07BC02AF07CC0E1
:100678002BF0000E136E000E146E200E156E410E38
:10068800166E73C00FF074C010F075C011F076C00C
:1006980012F05AEC07F00FC02CF010C02DF011C06A
:1006A8002EF012C02FF063EC14F0D8A05EEF03F028
:1006B80060EF03F089EF03F000016F4B702B73C0FC
:1006C8000FF074C010F075C011F076C012F0000E73
:1006D800136E000E146E200E156E410E166E5AEC37
:1006E80007F00FC073F010C074F011C075F012C09D
:1006F80076F0660E00016A19D8A485EF03F087EF3B
:1007080003F089EF03F06D4B6E2B73C088F074C053
:1007180089F075C08AF076C08BF06FC060F070C049
:1007280061F00001686B000E656F000E646F000ECB
:10073800786F000E776F86EF04F079C00FF07AC0FB
:1007480010F07BC011F07CC012F088C013F089C093
:1007580014F08AC015F08BC016F06DEC09F00FC0CC
:1007680028F010C029F011C02AF012C02BF04CEC70
:100778000FF028C07DF029C07EF02AC07FF02BC082
:1007880080F07DC028F07EC029F07FC02AF080C0AC
:100798002BF0E0EC13F029BEDDEF03F0295007E160
:1007A8000A0E285CD8B0DBEF03F0DDEF03F0EDEFC5
:1007B80003F07DC028F07EC029F07FC02AF080C0F9
:1007C8002BF0E0EC13F028C06BF029C06CF0F2EFCE
:1007D80003F0000E00016C6F090E6B6F0001685189
:1007E800D8A4F9EF03F0FBEF03F023EF04F061BFA7
:1007F80002EF04F000EF04F023EF04F0000E82256E
:10080800D96E010E8321DA6E2E0EDF6E824B832B9A
:100818007107D8A07207010E686F23EF04F0000E6D
:100828008225D96E010E8321DA6E300EDF6E824B7F
:10083800832B7107D8A072076407D8A06507645195
:100848006511D8A42AEF04F02CEF04F013EF04F09C
:10085800000E8225D96E010E8321DA6E6B51300F9E
:10086800DF6E824B832B7107D8A0720779C038F0EE
:100878007AC039F07BC03AF07CC03BF07DC013F001
:100888007EC014F07FC015F080C016F088C00FF04D
:1008980089C010F08AC011F08BC012F05AEC07F032
:1008A8000FC03CF010C03DF011C03EF012C03FF048
:1008B80007EC1AF038C079F039C07AF03AC07BF00A
:1008C8003BC07CF088C00FF089C010F08AC011F0DE
:1008D8008BC012F0000E136E000E146E200E156EF3
:1008E800410E166E6DEC09F00FC088F010C089F04B
:1008F80011C08AF012C08BF000016007D8A0610710
:10090800774B782B6D51775D7851800A466E6E5122
:10091800800A4658D8B093EF04F095EF04F0A3EF9F
:1009280004F083BFA1EF04F0835109E14B0E825D0F
:10093800D8A0A1EF04F0A3EF04F0A1EF03F0000E9C
:10094800786F4F0E776F000E7725D96E010E7821DC
:10095800DA6EDF6A000E466E010E476E8251465E01
:100968008351475A77514624016E78514720026EC9
:10097800000E036E010E046E82C005F083C006F0FF
:100988004DEC19F000018251775D826F83517859DF
:10099800836F8151D8A4D3EF04F0D6EF04F0010E91
:1009A800D7EF04F0000E776F786B8151D8B4DFEF82
:1009B80004F0E1EF04F0ECEF04F08207D8A083071D
:1009C800000E8225D96E010E8321DA6E81C0DFFF09
:1009D8007751715F7851725B40C00FF0000E82252D
:1009E800106E010E8321116E71C012F072C013F0E7
:1009F8001AEC19F012002B50800B346E2B502B245C
:100A0800366E2AAE0AEF05F00CEF05F00DEF05F093
:100A180036803650D8B413EF05F015EF05F029EFFE
:100A280005F03628D8A41BEF05F01DEF05F025EFDB
:100A380005F0000E286E000E296E000E2A6E000EBC
:100A48002B6E2A8E2B6A31EF05F0000E286E000EF1
:100A5800296E000E2A6E000E2B6E2F50800B356EFD
:100A680034503518D8B43BEF05F03DEF05F03EEFB4
:100A780005F0348C2F502F24356E2EAE46EF05F03E
:100A880048EF05F049EF05F035803550D8B44FEF01
:100A980005F051EF05F065EF05F03528D8A457EFBC
:100AA80005F059EF05F061EF05F0000E2C6E000E11
:100AB8002D6E000E2E6E000E2F6E2E8E2F6A6DEF8D
:100AC80005F0000E2C6E000E2D6E000E2E6E000E20
:100AD8002F6E3650355CD8B074EF05F076EF05F020
:100AE8009DEF05F034AC7BEF05F07DEF05F07FEF6F
:100AF80005F0800E341A36C037F035C036F037C0EE
:100B080035F028C037F02CC028F037C02CF029C0A9
:100B180037F02DC029F037C02DF02AC037F02EC08D
:100B28002AF037C02EF02BC037F02FC02BF037C07B
:100B38002FF0376A365035C030F0316A305E000E1B
:100B4800315A31BEB1EF05F0315009E11A0E305C6F
:100B5800D8A0B1EF05F0B3EF05F0EAEF05F02850A3
:100B680029102A102B10D8A4BCEF05F0BFEF05F010
:100B7800010EC0EF05F0000E376E000E286E000E55
:100B8800296E000E2A6E000E2B6E35C036F0F3EF7C
:100B980005F037A0D2EF05F0D4EF05F0DAEF05F055
:100BA800D89037300109376EDCEF05F0D89037322E
:100BB80028A0E1EF05F0E3EF05F0E4EF05F0378E4C
:100BC8002B342B322A3229322832362A3550365CD9
:100BD800D8A0F1EF05F0F3EF05F0CDEF05F034BC48
:100BE800F8EF05F0FAEF05F03AEF06F03650D8A422
:100BF80000EF06F002EF06F00CEF06F0000E286E8C
:100C0800000E296E000E2A6E000E2B6E59EF07F0AB
:100C18002C5028262D5029222E502A222F502B22A4
:100C28002BA019EF06F01BEF06F0C7EF06F037A070
:100C380020EF06F022EF06F028EF06F0D8903730C4
:100C48000109376E2AEF06F0D890373228A02FEF27
:100C580006F031EF06F032EF06F0378E2B342B32E8
:100C68002A3229322832362AC7EF06F02C50285C5F
:100C78002D5029582E502A582B50800A306E2F504C
:100C8800800A3058D8B04BEF06F04DEF06F078EFF9
:100C980006F028502C5C306E29502D58316E2A50A1
:100CA8002E58326E2B502F58336EFF0E3024286E7C
:100CB800FF0E3120296EFF0E32202A6EFF0E3320E0
:100CC8002B6E800E341A376C3750D8A46EEF06F0AE
:100CD80070EF06F080EF06F0010E2826000E29229C
:100CE8002A222B2280EF06F02C50285E2D50295AFC
:100CF8002E502A5A2F502B5A285029102A102B10C0
:100D0800D8A489EF06F08BEF06F0C0EF06F0375055
:100D1800D8A491EF06F093EF06F0C0EF06F0000EAE
:100D2800286E000E296E000E2A6E000E2B6E59EFEB
:100D380007F0D890283629362A362B3637AEA7EF53
:100D480006F0A9EF06F0AAEF06F0288037A0AFEF6B
:100D580006F0B1EF06F0B5EF06F0D8803736B7EFFA
:100D680006F0D89037363650D8B4BDEF06F0BFEF4E
:100D780006F0C0EF06F036062AAEC5EF06F0C7EF5C
:100D880006F09DEF06F0356A37AECDEF06F0CFEFEF
:100D980006F0E7EF06F037C030F07F0E3016D8B413
:100DA800D8EF06F0DAEF06F0DEEF06F0010E356E4A
:100DB800E7EF06F028A0E3EF06F0E5EF06F0E7EF2F
:100DC80006F0DAEF06F03550D8B4EDEF06F0EFEFA5
:100DD80006F01AEF07F0010E2826000E29222A2213
:100DE8002B222BA0FAEF06F0FCEF06F01AEF07F023
:100DF80028C030F029C031F02AC032F02BC033F0BF
:100E08003334333232323132303230C028F031C0EC
:100E180029F032C02AF033C02BF03628D8B417EFA7
:100E280007F019EF07F01AEF07F0362A3628D8B47A
:100E380020EF07F022EF07F02AEF07F03650D8A48A
:100E480028EF07F02AEF07F03BEF07F0000E286EB7
:100E5800000E296E000E2A6E000E2B6E3650D8A496
:100E680038EF07F03AEF07F03BEF07F0346A36A0A7
:100E780040EF07F042EF07F045EF07F02A8E46EF04
:100E880007F02A9ED89036302B6E34AE4EEF07F01E
:100E980050EF07F051EF07F02B8E28C028F029C03B
:100EA80029F02AC02AF02BC02BF012001250800B18
:100EB8001B6E12501224216E11AE65EF07F067EF1A
:100EC80007F068EF07F021802150D8B46EEF07F0E3
:100ED80070EF07F083EF07F02128D8A476EF07F02A
:100EE80078EF07F080EF07F0000E0F6E000E106E1F
:100EF800000E116E000E126E118E8BEF07F0000EB1
:100F08000F6E000E106E000E116E000E126E16504F
:100F1800800B1B1A16501624206E15AE96EF07F09C
:100F280098EF07F099EF07F020802050D8B49FEF92
:100F380007F0A1EF07F0B4EF07F02028D8A4A7EF37
:100F480007F0A9EF07F0B1EF07F0000E136E000EDF
:100F5800146E000E156E000E166E158EBCEF07F09F
:100F6800000E136E000E146E000E156E000E166E37
:100F78002050D8B4C2EF07F0C4EF07F0CCEF07F069
:100F88002150D8A4CAEF07F0CCEF07F0D6EF07F04E
:100F9800000E0F6E000E106E000E116E000E126E17
:100FA8006CEF09F015500F02F3CF26F0F4CF27F0BD
:100FB80026501C6E1D6A1E6A1F6A2750226E236AFD
:100FC800246A256A14501002F3CF26F0F4CF27F0D4
:100FD80026501C26000E1D221E221F2227502226C4
:100FE800000E23222422252213501102F3CF26F0CB
:100FF800F4CF27F026501C26000E1D221E221F2289
:1010080027502226000E2322242225221EC01FF04C
:101018001DC01EF01CC01DF01C6A13501002F3CF37
:1010280026F0F4CF27F026501C2627501D22000E4C
:101038001E22000E1F2214500F02F3CF26F0F4CF09
:1010480027F026501C2627501D22000E1E22000EB7
:101058001F221EC01FF01DC01EF01CC01DF01C6A00
:1010680013500F02F3CF26F0F4CF27F026501C269A
:1010780027501D22000E1E22000E1F22155010029E
:10108800F3CF26F0F4CF27F026502226275023222C
:10109800000E2422000E252214501102F3CF26F050
:1010A800F4CF27F02650222627502322000E242290
:1010B800000E252215501102F3CF26F0F4CF27F0A9
:1010C8002650176E2750186E196A1A6A19C01AF036
:1010D80018C019F017C018F0176A175022261850B0
:1010E8002322195024221A5025221CC017F01DC093
:1010F80018F01EC019F01FC01AF0190E89EF08F079
:10110800D8901A32193218321732E82E84EF08F0C4
:101118001750222618502322195024221A5025220B
:101128001EC01FF01DC01EF01CC01DF01C6A205000
:1011380021C017F0186A1726000E1822820E1724ED
:10114800266EFF0E1820276EBFEF08F0D8902236C3
:101158002336243625361FAEB4EF08F0B6EF08F074
:10116800B7EF08F02280D8901C361D361E361F3681
:101178002606D8A0270624AEC4EF08F0C6EF08F06C
:10118800AAEF08F0206A1FAECCEF08F0CEEF08F007
:10119800F2EF08F0FF0E1C14176EFF0E1D14186EE8
:1011A800FF0E1E14196E7F0E1F141A6E175018109A
:1011B80019101A10D8B4E3EF08F0E5EF08F0E9EFDA
:1011C80008F0010E206EF2EF08F022A0EEEF08F012
:1011D800F0EF08F0F2EF08F0E5EF08F02050D8B48F
:1011E800F8EF08F0FAEF08F01EEF09F0010E2226DA
:1011F800000E23222422252225A005EF09F007EF5F
:1012080009F01EEF09F022C017F023C018F024C01F
:1012180019F025C01AF01A341A3219321832173256
:1012280017C022F018C023F019C024F01AC025F006
:10123800264A272A27BE29EF09F0275008E1262841
:10124800D8A029EF09F02BEF09F035EF09F0000ECF
:10125800226E000E236E800E246E7F0E256E62EFC6
:1012680009F027BE42EF09F0275006E12604D8B05E
:1012780040EF09F042EF09F04DEF09F0000E226E41
:10128800000E236E000E246E000E256E1B6A62EFA0
:1012980009F026C021F0FF0E2216FF0E23167F0E3E
:1012A8002416000E251621A05CEF09F05EEF09F068
:1012B8005FEF09F0248ED8902130256E1B5025123F
:1012C80022C00FF023C010F024C011F025C012F086
:1012D80012001250800B1F6E12501224266E11AE8F
:1012E80078EF09F07AEF09F07BEF09F026802650B5
:1012F800D8B481EF09F083EF09F097EF09F02628B9
:10130800D8A489EF09F08BEF09F093EF09F0000EEC
:101318000F6E000E106E000E116E000E126E118E02
:10132800126A9FEF09F0000E0F6E000E106E000E8D
:10133800116E000E126E1650800B1F1A16501624CE
:10134800276E15AEAAEF09F0ACEF09F0ADEF09F082
:1013580027802750D8B4B3EF09F0B5EF09F0C9EFEB
:1013680009F02728D8A4BBEF09F0BDEF09F0C5EFB5
:1013780009F0000E136E000E146E000E156E000EAE
:10138800166E158E166AD1EF09F0000E136E000E58
:10139800146E000E156E000E166E135014101510F4
:1013A8001610D8A4DAEF09F0DCEF09F0F4EF09F031
:1013B800000E0F6E000E106E000E116E000E126EF3
:1013C800800E11127F0E12121F5012120FC00FF052
:1013D80010C010F011C011F012C012F034EF0BF071
:1013E8002650D8A4FAEF09F0FCEF09F006EF0AF04E
:1013F800000E0F6E000E106E000E116E000E126EB3
:1014080034EF0BF0275026C017F0186A175E000E4D
:10141800185A7F0E1724206E000E1820216E0FC058
:101428001BF010C01CF011C01DF012C01EF0000E01
:101438000F6E000E106E000E116E000E126E000E72
:10144800226E000E236E000E246E000E256E276A93
:1014580066EF0AF02750D8B434EF0AF036EF0AF0F6
:101468004DEF0AF0D8901B361C361D361E36D89024
:101478000F3610361136123625AE45EF0AF047EF13
:101488000AF048EF0AF00F80D89022362336243627
:10149800253613501B5C14501C5815501D581650F7
:1014A8001E58D8A05AEF0AF05CEF0AF065EF0AF070
:1014B800258C13501B5E14501C5A15501D5A16507B
:1014C8001E5A272A190E27646CEF0AF06EEF0AF0ED
:1014D8002EEF0AF01B501C101D101E10D8B477EF09
:1014E8000AF079EF0AF091EF0AF0228091EF0AF002
:1014F800D8900F3610361136123625AE86EF0AF020
:1015080088EF0AF089EF0AF00F80D8902236233648
:10151800243625362006D8A0210611AE96EF0AF00B
:1015280098EF0AF07CEF0AF0276A25AE9EEF0AF0E2
:10153800A0EF0AF0C4EF0AF0FF0E2214176EFF0E98
:101548002314186EFF0E2414196E7F0E25141A6EBC
:101558001750181019101A10D8B4B5EF0AF0B7EFD1
:101568000AF0BBEF0AF0010E276EC4EF0AF00FA0D5
:10157800C0EF0AF0C2EF0AF0C4EF0AF0B7EF0AF0C2
:101588002750D8B4CAEF0AF0CCEF0AF0F0EF0AF00F
:10159800010E0F26000E10221122122212A0D7EFE0
:1015A8000AF0D9EF0AF0F0EF0AF00FC017F010C0F8
:1015B80018F011C019F012C01AF01A341A32193280
:1015C8001832173217C00FF018C010F019C011F0F8
:1015D8001AC012F0204A212A21BEFBEF0AF021503E
:1015E80008E12028D8A0FBEF0AF0FDEF0AF008EF89
:1015F8000BF0000E216E2068000E0F6E000E106EAC
:10160800000E116E000E126E21BE15EF0BF0215068
:1016180006E12004D8B013EF0BF015EF0BF022EF22
:101628000BF0000E216E000E206E000E0F6E000EE5
:10163800106E000E116E000E126E1F6A20C026F08A
:1016480026A029EF0BF02BEF0BF02EEF0BF0118EED
:101658002FEF0BF0119ED8902630126EE8EF09F0AC
:101668001200000E366E320E356E35C01AF036C0D6
:101678001BF0000E1D6E050E1C6E2FEC11F0070EF0
:101688002B6E7D0EE82EFED72B2EFCD70000EC0E1D
:1016980035241A6EFF0E36201B6E000E1D6E050EC9
:1016A8001C6E2FEC11F0070E2B6E7D0EE82EFED768
:1016B8002B2EFCD70000320E3524356E000E362056
:1016C800366E36BE71EF0BF0DC0E355C050E365803
:1016D800D8A071EF0BF073EF0BF039EF0BF0030E9E
:1016E8002C6E8A0E2B6E560EE82EFED72B2EFCD7AC
:1016F8002C2EFAD7050E386EDC0E376E37C01AF06E
:1017080038C01BF0000E1D6E050E1C6E2FEC11F07C
:10171800070E2B6E7D0EE82EFED72B2EFCD7000071
:10172800EC0E37241A6EFF0E38201B6E000E1D6E4D
:10173800050E1C6E2FEC11F0070E2B6E7D0EE82E99
:10174800FED72B2EFCD70000E70E3724376EFF0E8E
:101758003820386E38BEBCEF0BF0385007E1330E36
:10176800375CD8B0BAEF0BF0BCEF0BF082EF0BF0A0
:10177800030E2C6E8A0E2B6E560EE82EFED72B2EDD
:10178800FCD72C2EFAD7000E2E6E000E2D6E050EED
:101798001B6EDC0E1A6E000E1D6E050E1C6E2FECF5
:1017A80011F0070E2B6E7D0EE82EFED72B2EFCD7E0
:1017B8000000050E1B6EC80E1A6E000E1D6E050E7B
:1017C8001C6E2FEC11F0070E2B6E7D0EE82EFED747
:1017D8002B2EFCD700002D4A2E2A2EBEFDEF0BF033
:1017E8002E5009E1140E2D5CD8A0FDEF0BF0FFEF91
:1017F8000BF0CBEF0BF0410E2B6EEE0EE82EFED762
:101808002B2EFCD700D0000E306E000E2F6E060E69
:101818001B6E0E0E1A6E000E1D6E050E1C6E2FEC42
:1018280011F0070E2B6E7D0EE82EFED72B2EFCD75F
:101838000000050E1B6EFA0E1A6E000E1D6E050EC8
:101848001C6E2FEC11F0070E2B6E7D0EE82EFED7C6
:101858002B2EFCD700002F4A302A30BE3DEF0CF06B
:10186800305009E10A0E2F5CD8A03DEF0CF03FEF95
:101878000CF00BEF0CF0030E2C6E8A0E2B6E560E2E
:10188800E82EFED72B2EFCD72C2EFAD7000E326E60
:10189800000E316E020E1B6EEE0E1A6E000E1D6EDD
:1018A800050E1C6E2FEC11F0070E2B6E7D0EE82E28
:1018B800FED72B2EFCD70000020E1B6EDA0E1A6E16
:1018C800000E1D6E050E1C6E2FEC11F0070E2B6E10
:1018D8007D0EE82EFED72B2EFCD70000314A322A87
:1018E80032BE80EF0CF0325009E10A0E315CD8A00C
:1018F80080EF0CF082EF0CF04EEF0CF0820E2B6EA6
:10190800DE0EE82EFED72B2EFCD7000E346E000E0E
:10191800336E020E1B6EBC0E1A6E000E1D6E050E87
:101928001C6E2FEC11F0070E2B6E7D0EE82EFED7E5
:101938002B2EFCD70000020E1B6EA80E1A6E000E8E
:101948001D6E050E1C6E2FEC11F0070E2B6E7D0E12
:10195800E82EFED72B2EFCD70000334A342A34BE9B
:10196800BFEF0CF0345009E1140E335CD8A0BFEF80
:101978000CF0C1EF0CF08DEF0CF012004950D96E4D
:10198800DA6ADECFF6FFDDCFF7FF0800F550250A4B
:10199800D8A4D1EF0CF0D3EF0CF015EF0EF04950AE
:1019A800D96EDA6ADE2A000EDD22000E0001C86F49
:1019B800000EC76FC7C0CDF0C969CA694950D96E52
:1019C800DA6ADECF52F0DDCF53F052C0F6FF53C0D3
:1019D800F7FF0800F550750AD8A4F5EF0CF0F7EFFB
:1019E8000CF070EF0DF04A50D96EDA6A020EDF265D
:1019F800DF5CD96EDA6ADECF4DF0DECF4EF0010E35
:101A080052244B6E000E53204C6E4950D96EDA6A40
:101A18004BC0DEFF4CC0DDFF64EF0DF0500E516E81
:101A28005106000E5124D96EDA6A010EDA224DC031
:101A380001F04EC002F0000E046E0A0E036E80EC38
:101A480019F00150300FDF6E4DC001F04EC002F0AA
:101A5800000E046E0A0E036E75EC18F001C04DF00E
:101A680002C04EF04D504E10D8B43DEF0DF03FEF90
:101A78000DF059EF0DF05150D8A445EF0DF047EF98
:101A88000DF014EF0DF059EF0DF0000E5124D96E42
:101A9800DA6A010EDA22DF504B6E4B50016E026A91
:101AA80048C003F079EC17F0512A500E5118D8A409
:101AB80060EF0DF062EF0DF049EF0DF026EF0EF03C
:101AC80052C0F6FF53C0F7FF0800F550750AD8B4A6
:101AD80012EF0DF070EF0DF04950D96EDA6ADECFD3
:101AE80052F0DDCF53F052C0F6FF53C0F7FF0800A5
:101AF800F5CF51F08BEF0DF0524A532A9AEF0DF0C3
:101B08006C0E516E9AEF0DF0516A9AEF0DF051502C
:101B18004C0AD8B480EF0DF02A0AD8B484EF0DF03F
:101B28000A0AD8B480EF0DF088EF0DF052C0F6FF26
:101B380053C0F7FF0800F550660AD8A4A6EF0DF0C9
:101B4800A8EF0DF00DEF0EF0D2EF0DF04A50D96E60
:101B5800DA6ADFCF4BF0040EDF264B50D96EDA6A13
:101B6800DECF4DF0DECF4EF0DECF4FF0DECF50F0BF
:101B7800DDEF0DF04A50D96EDA6ADFCF4BF0040E74
:101B8800DF264B50D96EDA6ADECF4DF0DECF4EF04D
:101B9800DECF4FF0DECF50F0DDEF0DF051504C0AA4
:101BA800D8B4BEEF0DF0200AD8B4AAEF0DF0DDEFDF
:101BB8000DF0010E52244B6E000E53204C6E49500E
:101BC800D96EDA6A4BC0DEFF4CC0DDFF01EF0EF0C4
:101BD80048C040F04DC041F04EC042F04FC043F005
:101BE80050C044F052C0F6FF53C0F7FF0800F5CFCD
:101BF80045F009EC00F026EF0EF052C0F6FF53C096
:101C0800F7FF0800F550660AD8B4ECEF0DF00DEFB9
:101C18000EF04950D96EDA6ADE2A000EDD2226EF70
:101C28000EF04950D96EDA6ADECFF6FFDDCFF7FF46
:101C38000800F550016E026A48C003F079EC17F00D
:101C48000DEF0EF01200620ED36E0F0EC16E070E6E
:101C5800B46E956A9468949C9586959495929580AF
:101C6800100ECD6ECA6A9D829E92F28CF28E030E81
:101C78000001A96F8A0EA86F550EE82EFED7A82F6F
:101C8800FCD7A92FFAD700D0E5EC1BF0030E000112
:101C9800A96F8A0EA86F550EE82EFED7A82FFCD77D
:101CA800A92FFAD700D064EC15F0030E0001A96F34
:101CB8008A0EA86F550EE82EFED7A82FFCD7A92F9D
:101CC800FAD700D0AFEC18F0030E0001A96F8A0E06
:101CD800A86F550EE82EFED7A82FFCD7A92FFAD744
:101CE80000D08DEC1BF0820E0001A86FDD0EE82EEF
:101CF800FED7A82FFCD700D07DEC1BF0030E000107
:101D0800A96F8A0EA86F550EE82EFED7A82FFCD70C
:101D1800A92FFAD700D00001BA6BB66BB96B000EC9
:101D2800B56F000EB46F000EB86F000EB76F83A0CA
:101D3800A0EF0EF0A2EF0EF0B2EF0EF00001B751D7
:101D4800B811D8A4AAEF0EF0ACEF0EF0B2EF0EF077
:101D5800000EB86F010EB76F35EC0BF083B0B7EF1C
:101D68000EF0B9EF0EF0BEEF0EF0000E0001B86FE6
:101D7800000EB76F0001B651BA19D8B4C6EF0EF00D
:101D8800C8EF0EF005EF0FF0310EBA19D8A4CFEF57
:101D98000EF0D1EF0EF0D9EF0EF021EC17F032C0B3
:101DA800B4F033C0B5F000EF0FF0320EBA19D8A472
:101DB800E0EF0EF0E2EF0EF0E6EF0EF0BDEC12F001
:101DC80000EF0FF0330EBA19D8A4EDEF0EF0EFEFD5
:101DD8000EF0F3EF0EF057EC16F000EF0FF0340EA4
:101DE800BA19D8A4FAEF0EF0FCEF0EF000EF0FF0DE
:101DF80035EC0BF000EF0FF0BAC0B6F0010E0001A1
:101E0800B96FB905D8A40BEF0FF00DEF0FF015EF70
:101E18000FF0B4C09FF0B5C0A0F024EC1BF0000197
:101E2800B96BCE51D8B41BEF0FF01DEF0FF024EFB4
:101E38000FF0CFC0BAF0BA51B9EC1BF00001CE6B6D
:101E480001EC12F0AFEC18F0CFEC1AF0AA0E00017A
:101E58008C6FF70E8D6F7F0E8E6F5AC08FF05BC040
:101E680090F05CC091F05DC092F0B1EC1AF0AA0E4F
:101E78000C6EE1EC15F0410E0001A86FEE0EE82E95
:101E8800FED7A82FFCD700009BEF0EF007EF00F05D
:101E9800BBC038F0BCC039F0BDC03AF0BEC03BF0A2
:101EA80028C038F029C039F02AC03AF02BC03BF0DE
:101EB800810E2C6EFF0E2D6E38C02EF039C02FF01B
:101EC8003AC030F03BC031F0180E70EF0FF0D890E8
:101ED800313230322F322E32E82E6BEF0FF02E5087
:101EE8002C24366E000E2D20376E37BE85EF0FF08E
:101EF800375009E1170E365CD8A085EF0FF087EF51
:101F08000FF091EF0FF028C028F029C029F02AC05F
:101F18002AF02BC02BF054EF10F037BE96EF0FF0DD
:101F280098EF0FF008EF10F036C02CF0FF0E2D6E72
:101F3800FF0E2E6E7F0E2F6E000E306E2C66A7EFF2
:101F48000FF0AFEF0FF0303430322F322E322D3207
:101F58002C2EA2EF0FF02DC032F02EC033F02FC080
:101F680034F030C035F0325038142C6E33503914F8
:101F78002D6E34503A142E6E35503B142F6E2C5063
:101F88002D102E102F10D8A4CCEF0FF0CEEF0FF09D
:101F9800D0EF0FF087EF0FF038C02CF039C02DF0DC
:101FA8003AC02EF03BC02FF0200EE0EF0FF0D89093
:101FB8002F322E322D322C32E82EDBEF0FF02C5040
:101FC8002D102E102F10D8B4ECEF0FF0EEEF0FF00D
:101FD800F6EF0FF0325038263350392234503A2277
:101FE80035503B22321C2C6E331C2D6E341C2E6E49
:101FF800351C2F6E2C5038162D5039162E503A1687
:102008002F503B164CEF10F038C02CF039C02DF093
:102018003AC02EF03BC02FF0200E18EF10F0D890E9
:102028002F322E322D322C32E82E13EF10F02C5096
:102038002D102E102F10D8A424EF10F026EF10F03A
:1020480030EF10F0000E386E000E396E000E3A6E4A
:10205800000E3B6E4CEF10F0D89038342C6E3934AB
:102068002D6E3A342E6E3B342F6E2C502D102E10C0
:102078002F10D8B442EF10F044EF10F04CEF10F0EE
:10208800000E386E000E396E800E3A6EBF0E3B6E33
:1020980038C028F039C029F03AC02AF03BC02BF0EC
:1020A8001200096E0950D8B45CEF10F05EEF10F022
:1020B80080EF10F004BE65EF10F063EF10F080EFD2
:1020C80010F001C005F002C006F003C007F004C01C
:1020D80008F0051E061E071E081E052A000E062209
:1020E8000722082205C00BF006C00CF007C00DF04F
:1020F80008C00EF088EF10F001C00BF002C00CF021
:1021080003C00DF004C00EF00150021003100410BB
:10211800D8A491EF10F093EF10F09DEF10F0000E9F
:10212800016E000E026E000E036E000E046E2EEF9E
:1021380011F0960E0A6EA7EF10F00A2AD8900E3208
:102148000D320C320B32000E0B14056E000E0C14FF
:10215800066E000E0D14076EFE0E0E14086E055066
:10216800061007100810D8A4BCEF10F0BEEF10F04E
:10217800A1EF10F0CCEF10F00A2A010E0B26000E8A
:102188000C220D220E22D8900E320D320C320B3258
:10219800000E0B14056E000E0C14066E000E0D14C6
:1021A800076EFF0E0E14086E055006100710081073
:1021B800D8A4E1EF10F0E3EF10F0C0EF10F0EBEF70
:1021C80010F00A06D8900B360C360D360E360DBEBA
:1021D800F0EF10F0F2EF10F0FAEF10F0020E0A60D4
:1021E800F8EF10F0FAEF10F0E5EF10F00AB0FFEF9B
:1021F80010F001EF11F002EF11F00D9ED8900A32A5
:102208000AC005F0066A076A086A05C008F0076A86
:10221800066A056A05500B1206500C1207500D127B
:1022280008500E120950D8B41CEF11F01EEF11F02F
:1022380026EF11F004BE25EF11F023EF11F026EF81
:1022480011F00E8E0BC001F00CC002F00DC003F0AF
:102258000EC004F012001A501B10D8A436EF11F06B
:1022680038EF11F03AEF11F000EF12F0CA948C92A7
:10227800400E0D6E420E0E6E0F0E0F6E000E106E9B
:102288001AC011F01BC012F0136A146A23EC18F07C
:102298000DC022F00EC023F00FC024F010C025F0AE
:1022A80022C01EF023C01FF024C020F025C021F05A
:1022B800D890213220321F321E321EC029F01FC092
:1022C8002AF02904010E2A58D8B06DEF11F06FEFEB
:1022D80011F078EF11F0286AFF0E2924266EFF0E00
:1022E8002A20276ECAEF11F029C01EF02AC01FF05D
:1022F800D8901F321E32D8901F321E321E04010E93
:102308001F58D8B08AEF11F08CEF11F0A0EF11F040
:10231800010E286E29C01EF02AC01FF0D8901F3267
:102328001E32D8901F321E32FF0E1E24266EFF0E5C
:102338001F20276ECAEF11F029C01EF02AC01FF017
:10234800040E206ED8901F321E32202EA6EF11F0F8
:102358001E04010E1F58D8B0B4EF11F0B6EF11F0FB
:1023680000EF12F0020E286E29C01EF02AC01FF0DE
:10237800040E206ED8901F321E32202EBEEF11F0B0
:10238800FF0E1E24266EFF0E1F20276ECA50281827
:10239800FC0B2818CA6E26C0CBFFCC6A9E921CC0C4
:1023A80001F01DC002F0036A046AE80E056E030E10
:1023B800066E000E076E000E086EE5EC18F001C000
:1023C8000DF002C00EF003C00FF004C010F029C0D9
:1023D80011F02AC012F0136A146A23EC18F00DC029
:1023E800C3F00EC0C4F00FC0C5F010C0C6F0030E95
:1023F800E82EFED70000CA841200000E426E000EBE
:10240800436E000E446E000E456E2AEC1AF004C0AE
:1024180046F005C047F00001CB51465C406ECC51F8
:102428004758416E40C001F041C002F0000E02BEA4
:10243800FF0E036E046E010E55EC10F001C00FF094
:1024480002C010F003C011F004C012F0000E136EA9
:10245800000E146E030E156E430E166E6DEC09F029
:102468000FC042F010C043F011C044F012C045F054
:102478005AC028F05BC029F05CC02AF05DC02BF080
:10248800000E136E000E146E800E156E3E0E166E44
:1024980042C00FF043C010F044C011F045C012F024
:1024A8005AEC07F00FC02CF010C02DF011C02EF020
:1024B80012C02FF0FFEC04F028C05AF029C05BF0DE
:1024C8002AC05CF02BC05DF0000E286E000E296E4D
:1024D800B40E2A6E430E2B6E5AC02CF05BC02DF042
:1024E8005CC02EF05DC02FF063EC14F0D8B07FEF25
:1024F80012F081EF12F09BEF12F05AC038F05BC077
:1025080039F05CC03AF05DC03BF0000E3C6E000E46
:102518003D6EB40E3E6E430E3F6E07EC1AF038C0A7
:102528005AF039C05BF03AC05CF03BC05DF05DBE6C
:10253800A2EF12F0A0EF12F0BCEF12F05AC028F090
:102548005BC029F05CC02AF05DC02BF0000E2C6E39
:10255800000E2D6EB40E2E6E430E2F6EFFEC04F09F
:1025680028C05AF029C05BF02AC05CF02BC05DF08F
:102578001200010E1B6E060E1A6E010E1D6EF40E71
:102588001C6E2FEC11F0030E2C6E8A0E2B6E560E5D
:10259800E82EFED72B2EFCD72C2EFAD7010E1B6E59
:1025A800260E1A6E010E1D6EF40E1C6E2FEC11F025
:1025B800030E2C6E8A0E2B6E560EE82EFED72B2E8F
:1025C800FCD72C2EFAD7010E1B6E4A0E1A6E010E7E
:1025D8001D6EF40E1C6E2FEC11F0030E2C6E8A0E7D
:1025E8002B6E560EE82EFED72B2EFCD72C2EFAD7A4
:1025F800010E1B6E5D0E1A6E010E1D6EF40E1C6E22
:102608002FEC11F0030E2C6E8A0E2B6E560EE82E50
:10261800FED72B2EFCD72C2EFAD7010E1B6E880E58
:102628001A6E010E1D6EF40E1C6E2FEC11F0030EC7
:102638002C6E8A0E2B6E560EE82EFED72B2EFCD74C
:102648002C2EFAD7010E1B6EB80E1A6E010E1D6ED7
:10265800F40E1C6E2FEC11F0030E2C6E8A0E2B6EEE
:10266800560EE82EFED72B2EFCD72C2EFAD7010EAD
:102678001B6ED20E1A6E010E1D6EF40E1C6E2FEC20
:1026880011F0030E2C6E8A0E2B6E560EE82EFED716
:102698002B2EFCD72C2EFAD7020E1B6E0B0E1A6EA1
:1026A800010E1D6EF40E1C6E2FEC11F012000A6A5A
:1026B80008BE63EF13F061EF13F06DEF13F0081E1F
:1026C800071E061E056C000E062207220822010EB0
:1026D8000A6E04BE74EF13F072EF13F07EEF13F07E
:1026E800041E031E021E016C000E02220322042295
:1026F800010E0A1A000E0B6E000E0C6E000E0D6E07
:10270800000E0E6E0550061007100810D8B48FEF93
:1027180013F091EF13F0C7EF13F0010E096E9BEF62
:1027280013F0D8900536063607360836092A08AE5B
:10273800A0EF13F0A2EF13F095EF13F0D8900B363B
:102748000C360D360E360550015C065002580750FF
:10275800035808500458D8A0B4EF13F0B6EF13F09C
:10276800BFEF13F00550015E0650025A0750035A96
:102778000850045A0B80D8900832073206320532C6
:10278800092EA2EF13F00A50D8B4CDEF13F0CFEF13
:1027980013F0D7EF13F00E1E0D1E0C1E0B6C000E5F
:1027A8000C220D220E220BC001F00CC002F00DC04D
:1027B80003F00EC004F012002A342B34316E31506D
:1027C800D8A4E9EF13F0EBEF13F0F5EF13F0000ED8
:1027D800286E000E296E000E2A6E000E2B6E62EF18
:1027E80014F028C02CF029C02DF02AC02EF02BC0E0
:1027F8002FF0200E05EF14F0D8902F322E322D3204
:102808002C32E82E00EF14F02C50306E2A8EFF0E7A
:102818002816FF0E2916FF0E2A16000E2B16960EE6
:10282800315E31BE1CEF14F01AEF14F032EF14F0E1
:102838003150800A970FD8B024EF14F026EF14F027
:1028480028EF14F0EBEF13F0D8902B322A3229320C
:102858002832313E28EF14F04AEF14F01F0E31648D
:1028680038EF14F03AEF14F042EF14F0EBEF13F0F6
:10287800D890283629362A362B3631063150D8A436
:1028880048EF14F04AEF14F03CEF14F03050D8B48D
:1028980050EF14F052EF14F05AEF14F02B1E2A1ECA
:1028A800291E286C000E29222A222B2228C028F053
:1028B80029C029F02AC02AF02BC02BF01200000EE4
:1028C8002814306E000E2914316E800E2A14326ED0
:1028D8007F0E2B14336E3050311032103310D8A4C1
:1028E80078EF14F07AEF14F082EF14F0000E286EEF
:1028F800000E296E000E2A6E000E2B6E000E2C1490
:10290800306E000E2D14316E800E2E14326E7F0E36
:102918002F14336E3050311032103310D8A497EF83
:1029280014F099EF14F0A1EF14F0000E2C6E000EC5
:102938002D6E000E2E6E000E2F6E2BAEA6EF14F02D
:10294800A8EF14F0B1EF14F0286C291ED8B0292A8A
:102958002A1ED8B02A2A800E2B562FAEB6EF14F0B6
:10296800B8EF14F0C1EF14F02C6C2D1ED8B02D2A3E
:102978002E1ED8B02E2A800E2F56000E281A000EB2
:10298800291A000E2A1A800E2B1A000E2C1A000E75
:102998002D1A000E2E1A800E2F1A2C50285C2D503E
:1029A80029582E502A582F502B58D8B0DEEF14F043
:1029B800E0EF14F0E3EF14F0D890E4EF14F0D880CF
:1029C8001200BFC00BF0C0C00CF0C1C00DF0C2C0F7
:1029D8000EF001C00BF002C00CF003C00DF004C0F3
:1029E8000EF00BC005F00CC006F00DC007F00EC0CD
:1029F80008F0180E05EF15F0D890083207320632A5
:102A08000532E82E00EF15F00550096E0A6A0950E4
:102A18000A10D8A412EF15F014EF15F034EF15F0E2
:102A2800D8900B34056E0C34066E0D34076E0E34D8
:102A3800086E0550061007100810D8A426EF15F0E8
:102A480028EF15F02EEF15F0000E026E020E016E43
:102A580063EF15F0000E026E030E016E63EF15F0C2
:102A680009280A10D8A43BEF15F03DEF15F05FEFE9
:102A780015F00BC005F00CC006F00DC007F00EC035
:102A880008F0090ED8900536063607360836E82EBF
:102A980046EF15F00550061007100810D8B457EF88
:102AA80015F05AEF15F0010E5BEF15F0000E016EF0
:102AB800026A63EF15F0000E026E040E016E12003A
:102AC800CFEC1BF0780EABEC1BF0000EABEC1BF060
:102AD800AE0E9CEC1BF0D50E9CEC1BF0800E9CEC13
:102AE8001BF0A80E9CEC1BF03F0E9CEC1BF0D30EC9
:102AF8009CEC1BF0000E9CEC1BF0400E9CEC1BF0B9
:102B08008D0E9CEC1BF0140E9CEC1BF0200E9CEC24
:102B18001BF0000E9CEC1BF0A10E9CEC1BF0C80EE9
:102B28009CEC1BF0DA0E9CEC1BF0120E9CEC1BF0DC
:102B3800810E9CEC1BF07F0E9CEC1BF0D90E9CECDC
:102B48001BF0F10E9CEC1BF0DB0E9CEC1BF0400E16
:102B58009CEC1BF0A40E9CEC1BF0A60E9CEC1BF04E
:102B6800AF0E9CEC1BF0C4EC1BF0030E056E8A0E36
:102B7800046E560EE82EFED7042EFCD7052EFAD783
:102B8800CFEC1BF0780EABEC1BF0000EABEC1BF09F
:102B9800210EABEC1BF0000EABEC1BF07F0EABEC88
:102BA8001BF0220EABEC1BF0000EABEC1BF0070E7B
:102BB800ABEC1BF0C4EC1BF01200000E186E000EFC
:102BC800176E4AEF16F00C501724D96EDA6A7F0E8A
:102BD800DF60F1EF15F0F3EF15F016EF16F0120EB7
:102BE800016E026A0C501724D96EDA6ADF500D6E36
:102BF8000D50050DF3CF0EF0F4CF0FF0600E0E243C
:102C0800106EFF0E0F20116E0F0E1024036E7E0E35
:102C18001120046E000E066E050E056E4DEC19F0BF
:102C280023EF16F0120E016E026AEA0E036E7F0E93
:102C3800046E000E066E050E056E4DEC19F0CFEC15
:102C48001BF0780EABEC1BF0400EABEC1BF0000E4B
:102C58001A6E000E196E1950120FD96EDA6ADF500B
:102C6800ABEC1BF0194A1A2A1ABE44EF16F01A5098
:102C780009E1050E195CD8A044EF16F046EF16F0EE
:102C88002FEF16F0C4EC1BF0174A182A0C50172423
:102C9800D96EDA6ADF50D8A454EF16F056EF16F062
:102CA800E7EF15F01200010E1B6EB80E1A6E000E3B
:102CB8001D6E960E1C6E2FEC11F0C30E2B6ECD0EF2
:102CC800E82EFED72B2EFCD70000010E1B6E880EB7
:102CD8001A6E000E1D6E960E1C6E2FEC11F0C30EB0
:102CE8002B6ECD0EE82EFED72B2EFCD70000010E42
:102CF8001B6E720E1A6E000E1D6E960E1C6E2FEC59
:102D080011F0C30E2B6ECD0EE82EFED72B2EFCD75E
:102D18000000010E1B6E880E1A6E000E1D6E960EB8
:102D28001C6E2FEC11F0C30E2B6ECD0EE82EFED7C5
:102D38002B2EFCD70000010E1B6E9F0E1A6E000E84
:102D48001D6E960E1C6E2FEC11F0C30E2B6ECD0E61
:102D5800E82EFED72B2EFCD70000010E1B6E720E3C
:102D68001A6E000E1D6EC80E1C6E2FEC11F01200AC
:102D7800000E136E000E146E000E156E000E166E09
:102D8800020E106E040E0F6EBA0EE82EFED70F2E2E
:102D9800FCD7102EFAD700D0000E186E000E176E52
:102DA8002AEC1AF004C00FF005C010F0000E10BE97
:102DB800FF0E116E126E0F50132610501422115070
:102DC800152212501622030E0F6E980EE82EFED70B
:102DD8000F2EFCD7174A182A18BEFCEF16F0D00E93
:102DE800175C070E1858D8A0FCEF16F0FEEF16F087
:102DF800D4EF16F013C001F014C002F015C003F0B0
:102E080016C004F0D00E056E070E066E000E076E93
:102E1800000E086E5BEC13F001C0CBF002C0CCF0E2
:102E2800020E106E040E0F6EBA0EE82EFED70F2E8D
:102E3800FCD7102EFAD700D01200000E396E000E03
:102E4800386ECF6ACE6A9E908C9400D08C84030E24
:102E5800E82EFED700D08C9483A635EF17F037EF15
:102E680017F030EF17F0CD8083B63DEF17F03FEF46
:102E780017F038EF17F0CD90CE50CFCF34F0356A39
:102E880034C035F0346A3410386E3550396E280E37
:102E9800136E7E0E146E0C0E156E3D0E166E38C037
:102EA80001F039C002F0036A046A000E55EC10F014
:102EB80001C00FF002C010F003C011F004C012F0FE
:102EC8005AEC07F00FC028F010C029F011C02AF002
:102ED80012C02BF0E0EC13F028C036F029C037F010
:102EE80036C032F037C033F012000350D8B47FEF49
:102EF80017F081EF17F089EF17F00350D8A487EF88
:102F080017F089EF17F08EEF17F00150F2EC1BF075
:102F1800CDEF17F00350D96EDA6A090ED926DE50C4
:102F2800DE10D8B49AEF17F09CEF17F0B5EF17F052
:102F38000350D96EDA6A090ED9260350E16EE26AA7
:102F4800020EE126DE50E65CE650800A086EDE508E
:102F5800800A0858D8B0B3EF17F0B5EF17F0CDEFE7
:102F680017F00350D96EDA6A020ED926DF50046EC4
:102F78000350D96EDA6ADF500424D96EDA6A01C0C8
:102F8800DFFF0350D96EDA6A020ED926DE2A000E58
:102F9800DD221200000E0114096E000E02140A6EE2
:102FA800800E03140B6E7F0E04140C6E09500A1069
:102FB8000B100C10D8A4E3EF17F0E5EF17F0EDEFC6
:102FC80017F0000E016E000E026E000E036E000E6A
:102FD800046E000E0514096E000E06140A6E800EAB
:102FE80007140B6E7F0E08140C6E09500A100B1094
:102FF8000C10D8A402EF18F004EF18F00CEF18F03A
:10300800000E056E000E066E000E076E000E086EAE
:10301800055001180FE1065002180CE1075003187B
:1030280009E108500418D8B41CEF18F01EEF18F086
:1030380021EF18F0D89022EF18F0D8801200000E77
:10304800156E000E166E000E176E000E186E1150DB
:10305800121013101410D8B434EF18F036EF18F01B
:103068006CEF18F0010E196E40EF18F0D890113679
:10307800123613361436192A14AE45EF18F047EFF6
:1030880018F03AEF18F0D890153616361736183665
:1030980011500D5C12500E5813500F581450105800
:1030A800D8A059EF18F05BEF18F064EF18F0115042
:1030B8000D5E12500E5A13500F5A1450105A1580A4
:1030C800D8901432133212321132192E47EF18F0F9
:1030D80015C00DF016C00EF017C00FF018C010F094
:1030E8001200000E066E000E056E03500410D8B4D0
:1030F80080EF18F082EF18F0AAEF18F0010E076EB3
:103108008AEF18F0D89003360436072A04AE8FEFFA
:1031180018F091EF18F086EF18F0D89005360636BB
:103128000350015C04500258D8A09DEF18F09FEF9F
:1031380018F0A4EF18F00350015E0450025A0580FD
:10314800D89004320332072E91EF18F005C001F031
:1031580006C002F01200CFEC1BF0780EABEC1BF0AF
:10316800400EABEC1BF0000E046E000E036E000E5A
:10317800066E000E056E000EABEC1BF0054A062A23
:1031880006BED0EF18F0065009E1800E055CD8A005
:10319800D0EF18F0D2EF18F0BFEF18F0034A042A66
:1031A80004BEE0EF18F0045009E1080E035CD8A053
:1031B800E0EF18F0E2EF18F0BBEF18F0C4EC1BF0EA
:1031C8001200000E096E000E0A6E000E0B6E000E45
:1031D8000C6E01A0F2EF18F0F4EF18F0FCEF18F005
:1031E8000550092606500A2207500B2208500C22C7
:1031F800D8900536063607360836D890043203329A
:10320800023201320150021003100410D8A40FEF4B
:1032180019F011EF19F0EDEF18F009C001F00AC02C
:1032280002F00BC003F00CC004F0120013BE21EF33
:1032380019F01FEF19F025EF19F0000E136E000EAC
:10324800126E000E166E000E156E35EF19F0000E98
:10325800026E200E016E0FC003F079EC17F0154ACC
:10326800162A1250155C1650800A146E1350800AE4
:103278001458D8A042EF19F044EF19F02BEF19F0C9
:1032880010C009F011C00AF00FC00BF091EC1AF051
:10329800120003C009F004C00AF001C007F002C020
:1032A80008F072EF19F009C0F6FF0AC0F7FFF86AD4
:1032B800050EF76403D00800F55005D0F6CFE1FFFE
:1032C800F7CFE2FFE7500B6E094A0A2A07C0D9FF79
:1032D80008C0DAFF0BC0DFFF074A082A0506D8A096
:1032E8000606052806E10628D8A47DEF19F07FEF29
:1032F80019F057EF19F0120003500410D8B487EFF3
:1033080019F089EF19F0ADEF19F0010E056E91EF84
:1033180019F0D89003360436052A04AE96EF19F052
:1033280098EF19F08DEF19F00350015C0450025822
:10333800D8A0A1EF19F0A3EF19F0A7EF19F00350E7
:10334800015E0450025AD89004320332052E98EFD9
:1033580019F001C001F002C002F0120004BEB7EF7C
:1033680019F0B9EF19F0C3EF19F001C001F002C06C
:1033780002F003C003F004C004F0DCEF19F001C050
:1033880005F002C006F003C007F004C008F0051EEF
:10339800061E071E081E052A000E062207220822FE
:1033A80005C001F006C002F007C003F008C004F031
:1033B800120006009EAAE3EF19F0E5EF19F0E7EF17
:1033C80019F0ECEC1BF09EA2ECEF19F0EEEF19F0FF
:1033D80005EF1AF09E920001C351C411C511C61120
:1033E800D8B4F9EF19F0FBEF19F003EF1AF08C726B
:1033F800C307000EC45BC55BC65B05EF1AF0CA9431
:103408008C925E921100000E3C1A000E3D1A000EBE
:103418003E1A800E3F1A38C028F039C029F03AC049
:103428002AF03BC02BF03CC02CF03DC02DF03EC034
:103438002EF03FC02FF0FFEC04F028C038F029C070
:1034480039F02AC03AF02BC03BF01200CFEC1BF049
:10345800D00EABEC1BF0470EABEC1BF0DAEC1BF01C
:10346800D10EABEC1BF0010E4DEC1AF0086E000EFD
:103478004DEC1AF0096EC4EC1BF0095008C006F0B8
:10348800076A06C007F0066A0610046E0750056E44
:103498001200026E6AEC1BF0C586C7A056EF1AF040
:1034A80058EF1AF051EF1AF0C9CF03F06AEC1BF08D
:1034B8000250D8B462EF1AF065EF1AF0C58A66EFC9
:1034C8001AF0C59AC588C5B86CEF1AF06EEF1AF0F5
:1034D80067EF1AF00350120055C058F056C059F063
:1034E8007EEF1AF054C048F0580E496E57C04AF0A3
:1034F800C2EC0CF058C0F6FF59C0F7FF0800F550B1
:103508000009D8A48AEF1AF08CEF1AF076EF1AF0B7
:10351800000E556E000E546E1200000E0E6E000E58
:103528000D6EA0EF1AF00CC001F0026A0BC003F098
:1035380079EC17F00D4A0E2A0D500924D96E0E5059
:103548000A20DA6EDF500C6E0C50D8A4AEEF1AF0D9
:10355800B0EF1AF097EF1AF012008F0E0001936F78
:103568008CC094F0000E976F000E966F000E9E6F41
:10357800000E9D6F940E546E8DC055F08EC056F09F
:10358800930E576E70EC1AF000018C519625D96E87
:10359800DA6ADF6A1200CFEC1BF0780EABEC1BF096
:1035A800000EABEC1BF0210EABEC1BF0000EABECED
:1035B8001BF07F0EABEC1BF0220EABEC1BF0000EE9
:1035C800ABEC1BF0070EABEC1BF0C4EC1BF01200CD
:1035D80001C005F002C006F003C0F6FF04C0F7FF03
:1035E800034A042A05C0D9FF06C0DAFF054A062A9D
:1035F8000800F5CFDFFFDF50D8A405EF1BF007EF79
:103608001BF0F0EF1AF01200015002100310041022
:10361800D8B411EF1BF013EF1BF01BEF1BF0000EDB
:10362800011A000E021A000E031A800E041A01C0B5
:1036380001F002C002F003C003F004C004F012005D
:10364800AFEC18F0CFEC1AF0A10E00018C6FFB0E56
:103658008D6F7F0E8E6F9FC08FF0A0C090F0B1EC81
:103668001AF0A10E026E55EC1BF0A10E0C6EE1ECE7
:1036780015F0120001EE00F0500EEE6AE806FDE1CA
:1036880000EEBBF0150EEE6AE806FDE15D6A5C6AC5
:103698005B6A5A6A5E905E92000EF86E000127EF30
:1036A8000EF05EEF1BF00250D96EDA6ADF50B9EC0B
:1036B8001BF0022A0250D96EDA6ADF50D8A467EFED
:1036C8001BF069EF1BF057EF1BF01200C5CF01F09C
:1036D8001F0E0116D8A473EF1BF075EF1BF06AEFED
:1036E8001BF0C7B47AEF1BF07CEF1BF06AEF1BF0FE
:1036F8001200CFEC1BF0D00EABEC1BF06B0EABEC5A
:103708001BF0000EABEC1BF0C4EC1BF0BCEC16F08D
:103718001200670EAF6EB06AAC84B886AC98AB8EF8
:103728009D8AF28CF28EAB9CAB88AC9CAC8A120062
:10373800036ECFEC1BF0780EABEC1BF0000EABEC7D
:103748001BF00350ABEC1BF0C4EC1BF01200026E34
:103758006AEC1BF002C0C9FF9EA6B5EF1BF0B7EFDD
:103768001BF0B0EF1BF09E961200016E9EA8BFEFF3
:103778001BF0C1EF1BF0BAEF1BF001C0ADFF120048
:103788006AEC1BF0C584C5B4CCEF1BF0CEEF1BF080
:10379800C7EF1BF012006AEC1BF0C580C5B0D7EF6D
:1037A8001BF0D9EF1BF0D2EF1BF012006AEC1BF0F4
:1037B800C582C5B2E2EF1BF0E4EF1BF0DDEF1BF0B2
:1037C8001200280EC66EC56A090EC86EC76A1200B6
:0E37D800AECFCFF0010E0001CE6F1200120036
:107E0E0000000000000000005F00000003000300FF
:107E1E00143E143E14242A7F2A1243330866613618
:107E2E00495522500005030000001C22410000416C
:107E3E00221C0014083E081408083E0808005030A2
:107E4E000000080808080800606000002010080400
:107E5E00023E5149453E04027F00004261514946AF
:107E6E0022414949361814127F1027454545393E9F
:107E7E0049494932010171090736494949362649AE
:107E8E0049493E00363600000056360000081422DE
:107E9E004100141414141400412214080201510953
:107EAE00063E4159555E7E0909097E7F494949368C
:107EBE003E414141227F4141413E7F494949417FF7
:107ECE00090909013E4141493A7F0808087F0041EE
:107EDE007F4100304040403F7F081422417F4040A8
:107EEE0040407F020C027F7F0204087F3E414141E9
:107EFE003E7F090909061E2121215E7F09090976A7
:107F0E00264949493201017F01013F4040403F1F50
:107F1E002040201F7F2010207F41221C2241070875
:107F2E007008076151494543007F41000002040873
:107F3E0010200000417F0004020102044040404036
:107F4E0040000102040020545454787F44444438C5
:107F5E003844444444384444447F385454541804F8
:107F6E00047E0505085454543C7F080404780044EC
:107F7E007D40002040443D007F1028440000417F9A
:107F8E0040007C047804787C080404783844444427
:107F9E00387C14141408081414147C007C0804048F
:107FAE00485454542004043F44443C4040207C1C1C
:107FBE002040201C3C4030403C44281028440C50AB
:107FCE0050503C4464544C44000836414100007FFC
:107FDE00000041413608000201020402FF81818146
:107FEE00FF696E66006E616E0025660A0025750AD1
:027FFE00000081
:020000040030CA
:0E000000FF08191EFF0281FF0FC00FE00F4026
:00000001FF
