:0400000007EF00F016
:10000800538298ED08F046EF08F01250800B1B6EF3
:1000180012501224216E11AE14EF00F016EF00F00A
:1000280017EF00F021802150D8B41DEF00F01FEF2A
:1000380000F032EF00F02128D8A425EF00F027EFD8
:1000480000F02FEF00F0000E0F6E000E106E000E85
:10005800116E000E126E118E3AEF00F0000E0F6E48
:10006800000E106E000E116E000E126E1650800BF0
:100078001B1A16501624206E15AE45EF00F047EFF8
:1000880000F048EF00F020802050D8B44EEF00F088
:1000980050EF00F063EF00F02028D8A456EF00F0EE
:1000A80058EF00F060EF00F0000E136E000E146EB3
:1000B800000E156E000E166E158E6BEF00F0000E1A
:1000C800136E000E146E000E156E000E166E205084
:1000D800D8B471EF00F073EF00F07BEF00F021501F
:1000E800D8A479EF00F07BEF00F085EF00F0000E68
:1000F8000F6E000E106E000E116E000E126E1BEFCA
:1001080002F015500F02F3CF26F0F4CF27F0265057
:100118001C6E1D6A1E6A1F6A2750226E236A246A93
:10012800256A14501002F3CF26F0F4CF27F026509A
:100138001C26000E1D221E221F2227502226000EDA
:1001480023222422252213501102F3CF26F0F4CFC4
:1001580027F026501C26000E1D221E221F22275083
:100168002226000E2322242225221EC01FF01DC095
:100178001EF01CC01DF01C6A13501002F3CF26F0AD
:10018800F4CF27F026501C2627501D22000E1E22D1
:10019800000E1F2214500F02F3CF26F0F4CF27F0E1
:1001A80026501C2627501D22000E1E22000E1F223C
:1001B8001EC01FF01DC01EF01CC01DF01C6A13508D
:1001C8000F02F3CF26F0F4CF27F026501C26275035
:1001D8001D22000E1E22000E1F2215501002F3CF02
:1001E80026F0F4CF27F02650222627502322000E8F
:1001F8002422000E252214501102F3CF26F0F4CF4A
:1002080027F02650222627502322000E2422000EF3
:10021800252215501102F3CF26F0F4CF27F02650EF
:10022800176E2750186E196A1A6A19C01AF018C082
:1002380019F017C018F0176A1750222618502322F1
:10024800195024221A5025221CC017F01DC018F07E
:100258001EC019F01FC01AF0190E38EF01F0D8901F
:100268001A32193218321732E82E33EF01F01750CC
:10027800222618502322195024221A5025221EC043
:100288001FF01DC01EF01CC01DF01C6A205021C0AC
:1002980017F0186A1726000E1822820E1724266EE9
:1002A800FF0E1820276E6EEF01F0D8902236233605
:1002B800243625361FAE63EF01F065EF01F066EFD7
:1002C80001F02280D8901C361D361E361F362606B1
:1002D800D8A0270624AE73EF01F075EF01F059EFAF
:1002E80001F0206A1FAE7BEF01F07DEF01F0A1EF76
:1002F80001F0FF0E1C14176EFF0E1D14186EFF0E72
:100308001E14196E7F0E1F141A6E1750181019102C
:100318001A10D8B492EF01F094EF01F098EF01F0C1
:10032800010E206EA1EF01F022A09DEF01F09FEFDA
:1003380001F0A1EF01F094EF01F02050D8B4A7EF3D
:1003480001F0A9EF01F0CDEF01F0010E2226000E19
:1003580023222422252225A0B4EF01F0B6EF01F0D4
:10036800CDEF01F022C017F023C018F024C019F017
:1003780025C01AF01A341A3219321832173217C037
:1003880022F018C023F019C024F01AC025F0264A1C
:10039800272A27BED8EF01F0275008E12628D8A041
:1003A800D8EF01F0DAEF01F0E4EF01F0000E226E71
:1003B800000E236E800E246E7F0E256E11EF02F064
:1003C80027BEF1EF01F0275006E12604D8B0EFEF81
:1003D80001F0F1EF01F0FCEF01F0000E226E000ECB
:1003E800236E000E246E000E256E1B6A11EF02F0BC
:1003F80026C021F0FF0E2216FF0E23167F0E2416AC
:10040800000E251621A00BEF02F00DEF02F00EEF03
:1004180002F0248ED8902130256E1B50251222C060
:100428000FF023C010F024C011F025C012F0120004
:10043800096E0950D8B423EF02F025EF02F047EF18
:1004480002F004BE2CEF02F02AEF02F047EF02F0B0
:1004580001C005F002C006F003C007F004C008F0B0
:10046800051E061E071E081E052A000E0622072264
:10047800082205C00BF006C00CF007C00DF008C03C
:100488000EF04FEF02F001C00BF002C00CF003C0F9
:100498000DF004C00EF00150021003100410D8A48F
:1004A80058EF02F05AEF02F064EF02F0000E016E0E
:1004B800000E026E000E036E000E046EF5EF02F0E1
:1004C800960E0A6E6EEF02F00A2AD8900E320D329E
:1004D8000C320B32000E0B14056E000E0C14066E57
:1004E800000E0D14076EFE0E0E14086E0550061051
:1004F80007100810D8A483EF02F085EF02F068EF28
:1005080002F093EF02F00A2A010E0B26000E0C22CD
:100518000D220E22D8900E320D320C320B32000E04
:100528000B14056E000E0C14066E000E0D14076EEB
:10053800FF0E0E14086E0550061007100810D8A4F8
:10054800A8EF02F0AAEF02F087EF02F0B2EF02F094
:100558000A06D8900B360C360D360E360DBEB7EFA0
:1005680002F0B9EF02F0C1EF02F0020E0A60BFEF2D
:1005780002F0C1EF02F0ACEF02F00AB0C6EF02F0F1
:10058800C8EF02F0C9EF02F00D9ED8900A320AC0F7
:1005980005F0066A076A086A05C008F0076A066A6D
:1005A800056A05500B1206500C1207500D12085020
:1005B8000E120950D8B4E3EF02F0E5EF02F0EDEFC8
:1005C80002F004BEECEF02F0EAEF02F0EDEF02F009
:1005D8000E8E0BC001F00CC002F00DC003F00EC06F
:1005E80004F01200620ED36E0F0EC16E070EB46EC9
:1005F800956A9468949C95869594100ECD6E030E1A
:100608003B6E8A0E3A6E560EE82EFED73A2EFCD76F
:100618003B2EFAD7C5EC08F0030E3B6E8A0E3A6EF5
:10062800560EE82EFED73A2EFCD73B2EFAD7B4EC5E
:1006380005F0030E3B6E8A0E3A6E560EE82EFED774
:100648003A2EFCD73B2EFAD71AEC07F0030E3B6E76
:100658008A0E3A6E560EE82EFED73A2EFCD73B2E5F
:10066800FAD7EB0E0A6E7F0E0B6E87EC04F0060EBF
:100678003B6E130E3A6EAE0EE82EFED73A2EFCD71E
:100688003B2EFAD76CEC08F0820E3A6EDE0EE82E9E
:10069800FED73A2EFCD7D70E026E7F0E036E82EC81
:1006A80007F0476A466A456A46504718D8B45FEF6C
:1006B80003F061EF03F07BEF03F0310E4718D8A485
:1006C80068EF03F06AEF03F06DEF03F08C8277EFC9
:1006D80003F0300E4718D8A474EF03F076EF03F058
:1006E80077EF03F08C9247C046F0010E456E450443
:1006F800D8A481EF03F083EF03F087EF03F04650AF
:1007080030EC08F0456A5150D8B48DEF03F08FEF04
:1007180003F095EF03F052C047F04750A4EC08F0FF
:10072800516A31EC06F032C043F033C044F01AECA1
:1007380007F0F7EC07F03C0E1B6EF80E1C6E7F0EF0
:100748001D6E43C01EF044C01FF014EC08F03C0EB0
:10075800026E036A82EC07F03C0E0A6E0B6A87ECA5
:1007680004F0060E3B6E130E3A6EAE0EE82EFED760
:100778003A2EFCD73B2EFAD758EF03F007EF00F0DC
:100788000A50D96EDA6ADECFF6FFDDCFF7FF080030
:10079800F550250AD8A4D3EF03F0D5EF03F075EF91
:1007A80004F00A50D96EDA6ADE2A000EDD22000E45
:1007B8004D6E000E4C6E4CC050F04E684F680A509B
:1007C800D96EDA6ADECF0EF0DDCF0FF00EC0F6FF7D
:1007D8000FC0F7FF0800F550750AD8A4F6EF03F02C
:1007E800F8EF03F06DEF04F00B50D96EDA6A020EE1
:1007F800DF26DF5CD96EDA6ADECF10F0DECF11F0CB
:10080800010E0E240C6E000E0F200D6E0A50D96ECC
:10081800DA6A0CC0DEFF0DC0DDFF61EF04F0200EC8
:10082800146E14061450600FD96EDA6A10C001F005
:1008380011C002F0000E046E0A0E036E50EC07F0B1
:100848000150300FDF6E10C001F011C002F0000E31
:10085800046E0A0E036EE0EC06F001C010F002C050
:1008680011F010501110D8B43CEF04F03EEF04F032
:1008780056EF04F01450D8A444EF04F046EF04F007
:1008880015EF04F056EF04F01450600FD96EDA6AD1
:10089800DF500C6E0C50016E026A09C003F08BEC3D
:1008A80006F0142A200E1418D8A45DEF04F05FEFA8
:1008B80004F048EF04F086EF04F00EC0F6FF0FC016
:1008C800F7FF0800F550750AD8B413EF04F06DEF80
:1008D80004F00A50D96EDA6ADE2A000EDD2286EFAD
:1008E80004F00A50D96EDA6ADECFF6FFDDCFF7FFE3
:1008F8000800F550016E026A09C003F08BEC06F09F
:100908006DEF04F01200000E196E000E186E12EF53
:1009180005F018500A240C6E19500B200D6E0CC0EF
:10092800F6FF0DC0F7FFF86A050EF76403D008005C
:10093800F55005D0F6CFE1FFF7CFE2FFE7500E6E96
:100948007F0E0E60AAEF04F0ACEF04F0DFEF04F0C6
:10095800130E016E18500A240C6E19500B200D6EE0
:100968000CC0F6FF0DC0F7FFF86A050EF76403D058
:100978000800F55005D0F6CFE1FFF7CFE2FFE750CA
:100988000E6E0E50050DF3CF0FF0F4CF10F0600E81
:100998000F24116EFF0E1020126EF70E1124026E36
:1009A8007D0E1220036E000E056E050E046EB1EC6E
:1009B80007F0EBEF04F0130E016ED20E026E7F0EFD
:1009C800036E000E056E050E046EB1EC07F0BAEC6E
:1009D80008F0780E8AEC08F0400E8AEC08F0000E59
:1009E8001B6E000E1A6E1A50130FD96EDA6ADF509A
:1009F8008AEC08F01A4A1B2A1BBE0CEF05F01B50A4
:100A080009E1050E1A5CD8A00CEF05F00EEF05F011
:100A1800F7EF04F0AFEC08F0184A192A18500A2426
:100A28000C6E19500B200D6E0CC0F6FF0DC0F7FFB1
:100A3800F86A050EF76403D00800F55005D0F6CF24
:100A4800E1FFF7CFE2FFE7500009D8A42EEF05F049
:100A580030EF05F08DEF04F012002A342B34316E9C
:100A68003150D8A43AEF05F03CEF05F046EF05F019
:100A7800000E286E000E296E000E2A6E000E2B6ED8
:100A8800B3EF05F028C02CF029C02DF02AC02EF0B5
:100A98002BC02FF0200E56EF05F0D8902F322E32B3
:100AA8002D322C32E82E51EF05F02C50306E2A8E64
:100AB800FF0E2816FF0E2916FF0E2A16000E2B16FB
:100AC800960E315E31BE6DEF05F06BEF05F083EFEA
:100AD80005F03150800A970FD8B075EF05F077EF21
:100AE80005F079EF05F03CEF05F0D8902B322A326B
:100AF80029322832313E79EF05F09BEF05F01F0EC1
:100B0800316489EF05F08BEF05F093EF05F03CEFCA
:100B180005F0D890283629362A362B36310631503A
:100B2800D8A499EF05F09BEF05F08DEF05F0305054
:100B3800D8B4A1EF05F0A3EF05F0ABEF05F02B1E3D
:100B48002A1E291E286C000E29222A222B2228C0A0
:100B580028F029C029F02AC02AF02BC02BF0120057
:100B6800BAEC08F0780E8AEC08F0000E8AEC08F06F
:100B7800AE0E7BEC08F0D50E7BEC08F0800E7BEC1B
:100B880008F0A80E7BEC08F03F0E7BEC08F0D30EC3
:100B98007BEC08F0000E7BEC08F0400E7BEC08F0D4
:100BA8008D0E7BEC08F0140E7BEC08F0200E7BEC2D
:100BB80008F0000E7BEC08F0A10E7BEC08F0C80EE4
:100BC8007BEC08F0DA0E7BEC08F0120E7BEC08F0F8
:100BD800810E7BEC08F07F0E7BEC08F0D90E7BECE5
:100BE80008F0F10E7BEC08F0DB0E7BEC08F0400E11
:100BF8007BEC08F0A40E7BEC08F0A60E7BEC08F06A
:100C0800AF0E7BEC08F0AFEC08F0030E056E8A0E11
:100C1800046E560EE82EFED7042EFCD7052EFAD702
:100C2800BAEC08F0780E8AEC08F0000E8AEC08F0AE
:100C3800210E8AEC08F0000E8AEC08F07F0E8AEC90
:100C480008F0220E8AEC08F0000E8AEC08F0070E75
:100C58008AEC08F0AFEC08F01200000E396E000EB6
:100C6800386ECF6ACE6A9E908C9400D08C84030E26
:100C7800E82EFED700D08C9483A645EF06F047EF08
:100C880006F040EF06F0CD808C8283B64EEF06F07A
:100C980050EF06F049EF06F0CD908C92CE50CFCFB2
:100CA80034F0356A34C035F0346A3410386E355053
:100CB800396E280E136E7E0E146E0C0E156E3D0ED8
:100CC800166E38C001F039C002F0036A046A000EDB
:100CD8001CEC02F001C00FF002C010F003C011F0CC
:100CE80004C012F009EC00F00FC028F010C029F081
:100CF80011C02AF012C02BF031EC05F028C036F0F4
:100D080029C037F036C032F037C033F01200035034
:100D1800D8B491EF06F093EF06F09BEF06F003507E
:100D2800D8A499EF06F09BEF06F0A0EF06F001506B
:100D3800D1EC08F0DFEF06F00350D96EDA6A090E3D
:100D4800D926DE50DE10D8B4ACEF06F0AEEF06F0D0
:100D5800C7EF06F00350D96EDA6A090ED926035098
:100D6800E16EE26A020EE126DE50E65CE650800A99
:100D7800086EDE50800A0858D8B0C5EF06F0C7EFF5
:100D880006F0DFEF06F00350D96EDA6A020ED926B4
:100D9800DF50046E0350D96EDA6ADF500424D96E2E
:100DA800DA6A01C0DFFF0350D96EDA6A020ED9266B
:100DB800DE2A000EDD221200000E066E000E056E01
:100DC80003500410D8B4EBEF06F0EDEF06F015EF82
:100DD80007F0010E076EF5EF06F0D89003360436DB
:100DE800072A04AEFAEF06F0FCEF06F0F1EF06F082
:100DF800D890053606360350015C04500258D8A036
:100E080008EF07F00AEF07F00FEF07F00350015E55
:100E18000450025A0580D89004320332072EFCEFA2
:100E280006F005C001F006C002F01200BAEC08F0A6
:100E3800780E8AEC08F0400E8AEC08F0000E046E7A
:100E4800000E036E000E066E000E056E000E8AEC94
:100E580008F0054A062A06BE3BEF07F0065009E1EE
:100E6800800E055CD8A03BEF07F03DEF07F02AEFB6
:100E780007F0034A042A04BE4BEF07F0045009E1C7
:100E8800080E035CD8A04BEF07F04DEF07F026EFF4
:100E980007F0AFEC08F0120003500410D8B457EF75
:100EA80007F059EF07F07DEF07F0010E056E61EFCF
:100EB80007F0D89003360436052A04AE66EF07F02B
:100EC80068EF07F05DEF07F00350015C045002582B
:100ED800D8A071EF07F073EF07F077EF07F0035032
:100EE800015E0450025AD89004320332052E68EF8E
:100EF80007F001C001F002C002F0120098EF07F0FD
:100F080002C0F6FF03C0F7FFF86A050EF76403D0C6
:100F18000800F55005D0F6CFE1FFF7CFE2FFE75024
:100F2800A4EC08F0024A032A02C0F6FF03C0F7FF48
:100F3800F86A050EF76403D00800F55005D0F6CF1F
:100F4800E1FFF7CFE2FFE7500009D8A4AEEF07F0C2
:100F5800B0EF07F084EF07F0120002C006F003C0FC
:100F680007F001C009F0C8EF07F006C0F6FF07C098
:100F7800F7FF0800F5CF08F0064A072A0950D96E8E
:100F8800DA6A08C0DFFF092A0406D8A00506042883
:100F980006E10528D8A4D3EF07F0D5EF07F0B9EF9D
:100FA80007F0120016C019F017C01AF0E4EF07F0A6
:100FB80015C009F0190E0A6E18C00BF0C4EC03F046
:100FC80019C0F6FF1AC0F7FF0800F5500009D8A4A9
:100FD800F0EF07F0F2EF07F0DCEF07F0000E166E07
:100FE800000E156E1200BAEC08F0780E8AEC08F0C4
:100FF800000E8AEC08F0210E8AEC08F0000E8AEC4C
:1010080008F07F0E8AEC08F0220E8AEC08F0000E39
:101018008AEC08F0070E8AEC08F0AFEC08F0120032
:101028001E0E206E1BC021F0000E246E000E236ED3
:10103800000E2B6E000E2A6E210E156E1CC016F0C7
:101048001DC017F0200E186ED6EC07F01B50232495
:10105800D96EDA6ADF6A12001C6E000E1D6E000E71
:101068001E6E000E1F6E000E206E1CC01DF02C0E92
:101078001E6E200E1F6E206A1D0E0A6E0B6A87EC0C
:1010880004F0120000EE60F0200EEE6AE806FDE1C2
:1010980000EE48F00B0EEE6AE806FDE1539053921D
:1010A800000EF86E0001F6EF02F0C5CF01F01F0E3A
:1010B8000116D8A462EF08F064EF08F059EF08F0C1
:1010C800C7B469EF08F06BEF08F059EF08F01200A9
:1010D800670EAF6EB06AAC84B886AC98AB8E9D8A4A
:1010E800F28CF28EAB9CAB88AC9CAC8A1200036E7F
:1010F800BAEC08F0780E8AEC08F0000E8AEC08F0DA
:1011080003508AEC08F0AFEC08F01200026E59ECBC
:1011180008F002C0C9FF9EA694EF08F096EF08F009
:101128008FEF08F09E96120006009EAA9EEF08F028
:10113800A0EF08F0A2EF08F0CCEC08F053921100F1
:10114800016E9EA8AAEF08F0ACEF08F0A5EF08F032
:1011580001C0ADFF120059EC08F0C584C5B4B7EF63
:1011680008F0B9EF08F0B2EF08F0120059EC08F0F7
:10117800C580C5B0C2EF08F0C4EF08F0BDEF08F0B5
:101188001200280EC66EC56A090EC86EC76A12001C
:0C119800AECF52F0010E516E120012009A
:107DF60000000000000000005F0000000300030018
:107E0600143E143E14242A7F2A1243330866613630
:107E1600495522500005030000001C224100004184
:107E2600221C0014083E081408083E0808005030BA
:107E36000000080808080800606000002010080418
:107E4600023E5149453E04027F00004261514946C7
:107E560022414949361814127F1027454545393EB7
:107E660049494932010171090736494949362649C6
:107E760049493E00363600000056360000081422F6
:107E8600410014141414140041221408020151096B
:107E9600063E4159555E7E0909097E7F49494936A4
:107EA6003E414141227F4141413E7F494949417F0F
:107EB600090909013E4141493A7F0808087F004106
:107EC6007F4100304040403F7F081422417F4040C0
:107ED60040407F020C027F7F0204087F3E41414101
:107EE6003E7F090909061E2121215E7F09090976BF
:107EF600264949493201017F01013F4040403F1F69
:107F06002040201F7F2010207F41221C224107088D
:107F16007008076151494543007F4100000204088B
:107F260010200000417F000402010204404040404E
:107F360040000102040020545454787F44444438DD
:107F46003844444444384444447F38545454180410
:107F5600047E0505085454543C7F08040478004404
:107F66007D40002040443D007F1028440000417FB2
:107F760040007C047804787C08040478384444443F
:107F8600387C14141408081414147C007C080404A7
:107F9600485454542004043F44443C4040207C1C34
:107FA6002040201C3C4030403C44281028440C50C3
:107FB60050503C4464544C44000836414100007F14
:107FC600000041413608000201020402FF8181815E
:107FD600FF436F6E6E656374656420746F2048435B
:107FE6002D30360A00555341525420746573743A45
:0A7FF6002000257520636D0A0000CD
:020000040030CA
:0E000000FF08191EFF0281FF0FC00FE00F4026
:00000001FF
